{
  "address": "0x80d426D65D926dF121dc58C18D043B73e998CE2b",
  "abi": [
    {
      "inputs": [
        {
          "internalType": "address[]",
          "name": "_payees",
          "type": "address[]"
        },
        {
          "internalType": "uint256[]",
          "name": "_share",
          "type": "uint256[]"
        }
      ],
      "stateMutability": "nonpayable",
      "type": "constructor"
    },
    {
      "anonymous": false,
      "inputs": [
        {
          "indexed": true,
          "internalType": "address",
          "name": "previousOwner",
          "type": "address"
        },
        {
          "indexed": true,
          "internalType": "address",
          "name": "newOwner",
          "type": "address"
        }
      ],
      "name": "OwnershipTransferred",
      "type": "event"
    },
    {
      "anonymous": false,
      "inputs": [
        {
          "indexed": true,
          "internalType": "address",
          "name": "payee",
          "type": "address"
        },
        {
          "indexed": false,
          "internalType": "uint256",
          "name": "share",
          "type": "uint256"
        }
      ],
      "name": "PayeeAdded",
      "type": "event"
    },
    {
      "anonymous": false,
      "inputs": [
        {
          "indexed": true,
          "internalType": "address",
          "name": "payee",
          "type": "address"
        },
        {
          "indexed": true,
          "internalType": "address",
          "name": "asset",
          "type": "address"
        },
        {
          "indexed": false,
          "internalType": "uint256",
          "name": "tokens",
          "type": "uint256"
        }
      ],
      "name": "PaymentReleased",
      "type": "event"
    },
    {
      "anonymous": false,
      "inputs": [
        {
          "indexed": true,
          "internalType": "address",
          "name": "vToken",
          "type": "address"
        },
        {
          "indexed": true,
          "internalType": "address",
          "name": "oracle",
          "type": "address"
        }
      ],
      "name": "VTokenAdded",
      "type": "event"
    },
    {
      "anonymous": false,
      "inputs": [
        {
          "indexed": true,
          "internalType": "address",
          "name": "vToken",
          "type": "address"
        },
        {
          "indexed": true,
          "internalType": "address",
          "name": "oracle",
          "type": "address"
        }
      ],
      "name": "VTokenRemoved",
      "type": "event"
    },
    {
      "inputs": [],
      "name": "HIGH",
      "outputs": [
        {
          "internalType": "uint256",
          "name": "",
          "type": "uint256"
        }
      ],
      "stateMutability": "view",
      "type": "function"
    },
    {
      "inputs": [],
      "name": "LOW",
      "outputs": [
        {
          "internalType": "uint256",
          "name": "",
          "type": "uint256"
        }
      ],
      "stateMutability": "view",
      "type": "function"
    },
    {
      "inputs": [
        {
          "internalType": "address",
          "name": "_vToken",
          "type": "address"
        },
        {
          "internalType": "address",
          "name": "_oracle",
          "type": "address"
        }
      ],
      "name": "addVToken",
      "outputs": [],
      "stateMutability": "nonpayable",
      "type": "function"
    },
    {
      "inputs": [],
      "name": "isAutoTopUpEnabled",
      "outputs": [
        {
          "internalType": "bool",
          "name": "",
          "type": "bool"
        }
      ],
      "stateMutability": "view",
      "type": "function"
    },
    {
      "inputs": [],
      "name": "isTopUpEnabled",
      "outputs": [
        {
          "internalType": "bool",
          "name": "",
          "type": "bool"
        }
      ],
      "stateMutability": "view",
      "type": "function"
    },
    {
      "inputs": [
        {
          "internalType": "address",
          "name": "",
          "type": "address"
        }
      ],
      "name": "oracles",
      "outputs": [
        {
          "internalType": "address",
          "name": "",
          "type": "address"
        }
      ],
      "stateMutability": "view",
      "type": "function"
    },
    {
      "inputs": [],
      "name": "owner",
      "outputs": [
        {
          "internalType": "address",
          "name": "",
          "type": "address"
        }
      ],
      "stateMutability": "view",
      "type": "function"
    },
    {
      "inputs": [
        {
          "internalType": "uint256",
          "name": "",
          "type": "uint256"
        }
      ],
      "name": "payees",
      "outputs": [
        {
          "internalType": "address",
          "name": "",
          "type": "address"
        }
      ],
      "stateMutability": "view",
      "type": "function"
    },
    {
      "inputs": [
        {
          "internalType": "address",
          "name": "_payee",
          "type": "address"
        },
        {
          "internalType": "address",
          "name": "_asset",
          "type": "address"
        }
      ],
      "name": "release",
      "outputs": [],
      "stateMutability": "nonpayable",
      "type": "function"
    },
    {
      "inputs": [
        {
          "internalType": "address payable",
          "name": "_payee",
          "type": "address"
        }
      ],
      "name": "releaseEther",
      "outputs": [],
      "stateMutability": "nonpayable",
      "type": "function"
    },
    {
      "inputs": [
        {
          "internalType": "address",
          "name": "",
          "type": "address"
        },
        {
          "internalType": "address",
          "name": "",
          "type": "address"
        }
      ],
      "name": "released",
      "outputs": [
        {
          "internalType": "uint256",
          "name": "",
          "type": "uint256"
        }
      ],
      "stateMutability": "view",
      "type": "function"
    },
    {
      "inputs": [
        {
          "internalType": "address",
          "name": "_vToken",
          "type": "address"
        }
      ],
      "name": "removeVToken",
      "outputs": [],
      "stateMutability": "nonpayable",
      "type": "function"
    },
    {
      "inputs": [],
      "name": "renounceOwnership",
      "outputs": [],
      "stateMutability": "nonpayable",
      "type": "function"
    },
    {
      "inputs": [
        {
          "internalType": "address",
          "name": "",
          "type": "address"
        }
      ],
      "name": "share",
      "outputs": [
        {
          "internalType": "uint256",
          "name": "",
          "type": "uint256"
        }
      ],
      "stateMutability": "view",
      "type": "function"
    },
    {
      "inputs": [],
      "name": "toggleAutoTopUp",
      "outputs": [],
      "stateMutability": "nonpayable",
      "type": "function"
    },
    {
      "inputs": [],
      "name": "toggleTopUpStatus",
      "outputs": [],
      "stateMutability": "nonpayable",
      "type": "function"
    },
    {
      "inputs": [],
      "name": "topUp",
      "outputs": [],
      "stateMutability": "nonpayable",
      "type": "function"
    },
    {
      "inputs": [
        {
          "internalType": "address",
          "name": "",
          "type": "address"
        }
      ],
      "name": "totalReleased",
      "outputs": [
        {
          "internalType": "uint256",
          "name": "",
          "type": "uint256"
        }
      ],
      "stateMutability": "view",
      "type": "function"
    },
    {
      "inputs": [],
      "name": "totalShare",
      "outputs": [
        {
          "internalType": "uint256",
          "name": "",
          "type": "uint256"
        }
      ],
      "stateMutability": "view",
      "type": "function"
    },
    {
      "inputs": [
        {
          "internalType": "address",
          "name": "newOwner",
          "type": "address"
        }
      ],
      "name": "transferOwnership",
      "outputs": [],
      "stateMutability": "nonpayable",
      "type": "function"
    },
    {
      "inputs": [
        {
          "internalType": "uint256",
          "name": "",
          "type": "uint256"
        }
      ],
      "name": "vTokens",
      "outputs": [
        {
          "internalType": "address",
          "name": "",
          "type": "address"
        }
      ],
      "stateMutability": "view",
      "type": "function"
    },
    {
      "stateMutability": "payable",
      "type": "receive"
    }
  ],
  "transactionHash": "0xd9692f8ac3b2fb335420ef7cd13e8e96942c1d72bb72391d137f95da14fe7053",
  "args": [
    [
      "0x9520b477Aa81180E6DdC006Fc09Fb6d3eb4e807A",
      "0x9bcdf1130b20856f86267074de136c5902e314fe",
      "0xf4087b7AB24Bde9c445ddD0bc4DF257F81277214"
    ],
    [
      4000,
      5500,
      500
    ]
  ],
  "solcInputHash": "2f8db376f6a3a7aa705bea1766f09a29",
  "bytecode": "0x60806040523480156200001157600080fd5b506040516200228538038062002285833981810160405260408110156200003757600080fd5b81019080805160405193929190846401000000008211156200005857600080fd5b9083019060208201858111156200006e57600080fd5b82518660208202830111640100000000821117156200008c57600080fd5b82525081516020918201928201910280838360005b83811015620000bb578181015183820152602001620000a1565b5050505090500160405260200180516040519392919084640100000000821115620000e557600080fd5b908301906020820185811115620000fb57600080fd5b82518660208202830111640100000000821117156200011957600080fd5b82525081516020918201928201910280838360005b83811015620001485781810151838201526020016200012e565b50505050905001604052505050600062000167620002a460201b60201c565b600080546001600160a01b0319166001600160a01b0383169081178255604051929350917f8be0079c531659141344cd1fd0a4f28419497f9722a3daafe3b4186f6b6457e0908290a350805182511462000208576040805162461bcd60e51b815260206004820181905260248201527f7061796565732d616e642d73686172652d6c656e6774682d6d69736d61746368604482015290519081900360640190fd5b60008251116200024b576040805162461bcd60e51b81526020600482015260096024820152686e6f2d70617965657360b81b604482015290519081900360640190fd5b60005b82518110156200029b57620002928382815181106200026957fe5b60200260200101518383815181106200027e57fe5b6020026020010151620002a860201b60201c565b6001016200024e565b505050620004e4565b3390565b6001600160a01b03821662000304576040805162461bcd60e51b815260206004820152601560248201527f70617965652d69732d7a65726f2d616464726573730000000000000000000000604482015290519081900360640190fd5b600081116200035a576040805162461bcd60e51b815260206004820152601560248201527f70617965652d776974682d7a65726f2d73686172650000000000000000000000604482015290519081900360640190fd5b6001600160a01b03821660009081526003602052604090205415620003c6576040805162461bcd60e51b815260206004820152601760248201527f70617965652d6578697374732d776974682d7368617265000000000000000000604482015290519081900360640190fd5b6005805460018082019092557f036b6384b5eca791c62761152d0c79bb0604c104a5fb6f4eb0703f3154bb3db00180546001600160a01b0319166001600160a01b038516908117909155600090815260036020908152604090912083905590546200043c91839062000482811b6200104e17901c565b6001556040805182815290516001600160a01b038416917f40c340f65e17194d14ddddb073d3c9f888e3cb52b5aae0c6c7706b4fbc905fac919081900360200190a25050565b600082820183811015620004dd576040805162461bcd60e51b815260206004820152601b60248201527f536166654d6174683a206164646974696f6e206f766572666c6f770000000000604482015290519081900360640190fd5b9392505050565b611d9180620004f46000396000f3fe60806040526004361061012e5760003560e01c8063715018a6116100ab578063b73974a11161006f578063b73974a1146103af578063c2001148146103c4578063d79779b2146103f7578063dc29f1de1461042a578063f2fde38b1461043f578063f3c92e8a1461047257610135565b8063715018a6146103135780638da5cb5b1461032857806393cb090e1461033d5780639f17b0f914610367578063addd50991461037c57610135565b8063406072a9116100f2578063406072a91461022d57806348b75044146102685780634d4cadd3146102a35780634d75190a146102b857806363037b0c146102cd57610135565b8063026c42071461013a5780631877bb5c146101615780632ad391ec1461019457806339414afd146101c95780633fc0b8a7146101f257610135565b3661013557005b600080fd5b34801561014657600080fd5b5061014f610487565b60408051918252519081900360200190f35b34801561016d57600080fd5b5061014f6004803603602081101561018457600080fd5b50356001600160a01b031661048d565b3480156101a057600080fd5b506101c7600480360360208110156101b757600080fd5b50356001600160a01b031661049f565b005b3480156101d557600080fd5b506101de61070d565b604080519115158252519081900360200190f35b3480156101fe57600080fd5b506101c76004803603604081101561021557600080fd5b506001600160a01b038135811691602001351661071b565b34801561023957600080fd5b5061014f6004803603604081101561025057600080fd5b506001600160a01b03813581169160200135166109d2565b34801561027457600080fd5b506101c76004803603604081101561028b57600080fd5b506001600160a01b03813581169160200135166109ef565b3480156102af57600080fd5b506101de610b6b565b3480156102c457600080fd5b506101c7610b74565b3480156102d957600080fd5b506102f7600480360360208110156102f057600080fd5b5035610bfe565b604080516001600160a01b039092168252519081900360200190f35b34801561031f57600080fd5b506101c7610c25565b34801561033457600080fd5b506102f7610cc7565b34801561034957600080fd5b506102f76004803603602081101561036057600080fd5b5035610cd6565b34801561037357600080fd5b5061014f610ce3565b34801561038857600080fd5b506102f76004803603602081101561039f57600080fd5b50356001600160a01b0316610cef565b3480156103bb57600080fd5b5061014f610d0a565b3480156103d057600080fd5b506101c7600480360360208110156103e757600080fd5b50356001600160a01b0316610d17565b34801561040357600080fd5b5061014f6004803603602081101561041a57600080fd5b50356001600160a01b0316610e51565b34801561043657600080fd5b506101c7610e63565b34801561044b57600080fd5b506101c76004803603602081101561046257600080fd5b50356001600160a01b0316610ebc565b34801561047e57600080fd5b506101c7610fc2565b60015481565b60036020526000908152604090205481565b6104a76110b1565b6000546001600160a01b039081169116146104f7576040805162461bcd60e51b81526020600482018190526024820152600080516020611d12833981519152604482015290519081900360640190fd5b6001600160a01b03811661054b576040805162461bcd60e51b815260206004820152601660248201527576546f6b656e2d69732d7a65726f2d6164647265737360501b604482015290519081900360640190fd5b6001600160a01b03811660009081526007602052604090205460ff166105ab576040805162461bcd60e51b815260206004820152601060248201526f1d951bdad95b8b5b9bdd0b599bdd5b9960821b604482015290519081900360640190fd5b60005b60065481101561070957816001600160a01b0316600682815481106105cf57fe5b6000918252602090912001546001600160a01b03161415610701576006805460001981019081106105fc57fe5b600091825260209091200154600680546001600160a01b03909216918390811061062257fe5b9060005260206000200160006101000a8154816001600160a01b0302191690836001600160a01b03160217905550600680548061065b57fe5b60008281526020808220830160001990810180546001600160a01b03191690559092019092556001600160a01b03848116808452600783526040808520805460ff191690556008909352828420549251929091169290917ffe48082efa5ff0caecfc8a7dfbc427a9910386eb5ecd0ce47e0b5cb549c3459b9190a36001600160a01b038216600090815260086020526040902080546001600160a01b0319169055610709565b6001016105ae565b5050565b600954610100900460ff1681565b6107236110b1565b6000546001600160a01b03908116911614610773576040805162461bcd60e51b81526020600482018190526024820152600080516020611d12833981519152604482015290519081900360640190fd5b6001600160a01b0382166107c7576040805162461bcd60e51b815260206004820152601660248201527576546f6b656e2d69732d7a65726f2d6164647265737360501b604482015290519081900360640190fd5b6001600160a01b03821660009081526007602052604090205460ff1615610828576040805162461bcd60e51b815260206004820152601060248201526f323ab83634b1b0ba3296bb2a37b5b2b760811b604482015290519081900360640190fd5b73c02aaa39b223fe8d0a0e5c4f27ead9083c756cc26001600160a01b0316826001600160a01b031663fc0c546a6040518163ffffffff1660e01b815260040160206040518083038186803b15801561087f57600080fd5b505afa158015610893573d6000803e3d6000fd5b505050506040513d60208110156108a957600080fd5b50516001600160a01b03161461093c576001600160a01b03811661090d576040805162461bcd60e51b81526020600482015260166024820152756f7261636c652d69732d7a65726f2d6164647265737360501b604482015290519081900360640190fd5b6001600160a01b03828116600090815260086020526040902080546001600160a01b0319169183169190911790555b6006805460018082019092557ff652222313e28459528d920b65115c16c04f3efc82aaedc97be59f3f377c0d3f0180546001600160a01b0319166001600160a01b03858116918217909255600081815260076020526040808220805460ff191690951790945592519184169290917fe3136fbc6700e6caa4fd499370c57e07bd40a24347bf7e04be3950663febe57c9190a35050565b600460209081526000928352604080842090915290825290205481565b6001600160a01b038216600090815260036020526040902054610a55576040805162461bcd60e51b815260206004820152601960248201527870617965652d646f65732d6e6f742d686176652d736861726560381b604482015290519081900360640190fd5b60095460ff1615610a6857610a686110b5565b6001600160a01b03811660008181526002602090815260408083205481516370a0823160e01b815230600482015291519394610af594919390926370a082319260248083019392829003018186803b158015610ac357600080fd5b505afa158015610ad7573d6000803e3d6000fd5b505050506040513d6020811015610aed57600080fd5b50519061104e565b90506000610b048484846112e3565b9050610b1a6001600160a01b03841685836113f7565b826001600160a01b0316846001600160a01b03167f8ac5b3c2902b21b6bbb4d99ec195e28a242cb6a1777804db10b84d91e2006429836040518082815260200191505060405180910390a350505050565b60095460ff1681565b610b7c6110b1565b6000546001600160a01b03908116911614610bcc576040805162461bcd60e51b81526020600482018190526024820152600080516020611d12833981519152604482015290519081900360640190fd5b600954610100900460ff1615610bec576009805461ffff19169055610bfc565b6009805461ff0019166101001790555b565b60058181548110610c0b57fe5b6000918252602090912001546001600160a01b0316905081565b610c2d6110b1565b6000546001600160a01b03908116911614610c7d576040805162461bcd60e51b81526020600482018190526024820152600080516020611d12833981519152604482015290519081900360640190fd5b600080546040516001600160a01b03909116907f8be0079c531659141344cd1fd0a4f28419497f9722a3daafe3b4186f6b6457e0908390a3600080546001600160a01b0319169055565b6000546001600160a01b031690565b60068181548110610c0b57fe5b678ac7230489e8000081565b6008602052600090815260409020546001600160a01b031681565b6801158e460913d0000081565b6001600160a01b038116600090815260036020526040902054610d7d576040805162461bcd60e51b815260206004820152601960248201527870617965652d646f65732d6e6f742d686176652d736861726560381b604482015290519081900360640190fd5b73eeeeeeeeeeeeeeeeeeeeeeeeeeeeeeeeeeeeeeee600090815260026020527f6a26712a1b2f732f4c1fd85f9d6ed8235573aaa2a79aa2bab72c2423a73a9faf54610dc990479061104e565b90506000610dec8373eeeeeeeeeeeeeeeeeeeeeeeeeeeeeeeeeeeeeeee846112e3565b9050610df88382611449565b60408051828152905173eeeeeeeeeeeeeeeeeeeeeeeeeeeeeeeeeeeeeeee916001600160a01b038616917f8ac5b3c2902b21b6bbb4d99ec195e28a242cb6a1777804db10b84d91e20064299181900360200190a3505050565b60026020526000908152604090205481565b600954610100900460ff16610eb4576040805162461bcd60e51b81526020600482015260126024820152711d1bdc0b5d5c0b5a5ccb591a5cd8589b195960721b604482015290519081900360640190fd5b610bfc6110b5565b610ec46110b1565b6000546001600160a01b03908116911614610f14576040805162461bcd60e51b81526020600482018190526024820152600080516020611d12833981519152604482015290519081900360640190fd5b6001600160a01b038116610f67576040805162461bcd60e51b81526020600482015260156024820152744f776e61626c653a207a65726f206164647265737360581b604482015290519081900360640190fd5b600080546040516001600160a01b03808516939216917f8be0079c531659141344cd1fd0a4f28419497f9722a3daafe3b4186f6b6457e091a3600080546001600160a01b0319166001600160a01b0392909216919091179055565b610fca6110b1565b6000546001600160a01b0390811691161461101a576040805162461bcd60e51b81526020600482018190526024820152600080516020611d12833981519152604482015290519081900360640190fd5b60095460ff1615611034576009805460ff19169055610bfc565b6009805461ff001960ff1990911660011716610100179055565b6000828201838110156110a8576040805162461bcd60e51b815260206004820152601b60248201527f536166654d6174683a206164646974696f6e206f766572666c6f770000000000604482015290519081900360640190fd5b90505b92915050565b3390565b73b5abdabe50b5193d4db92a16011792b22ba3ef5131678ac7230489e8000081106110e05750610bfc565b60005b6006548110156111565761113661112f6006838154811061110057fe5b6000918252602090912001546001600160a01b031673b5abdabe50b5193d4db92a16011792b22ba3ef5161152e565b839061104e565b9150678ac7230489e80000821061114e575050610bfc565b6001016110e3565b50600061116c6801158e460913d00000836118a3565b905060005b6006548110156112de5760006111a86006838154811061118d57fe5b6000918252602090912001546001600160a01b03163061152e565b90506000600683815481106111b957fe5b60009182526020918290200154604080516370a0823160e01b815230600482015290516001600160a01b03909216926370a0823192602480840193829003018186803b15801561120857600080fd5b505afa15801561121c573d6000803e3d6000fd5b505050506040513d602081101561123257600080fd5b50519050818411156112915761124884836118a3565b935061128c73b5abdabe50b5193d4db92a16011792b22ba3ef51826006868154811061127057fe5b6000918252602090912001546001600160a01b031691906113f7565b6112d4565b6112a58261129f8684611900565b90611959565b90506112cd73b5abdabe50b5193d4db92a16011792b22ba3ef51826006868154811061127057fe5b50506112de565b5050600101611171565b505050565b6001600160a01b0380841660008181526004602090815260408083209487168352938152838220546001549383526003909152928120549092916113389183916113329161129f908890611900565b906118a3565b91508161138c576040805162461bcd60e51b815260206004820152601b60248201527f70617965652d69732d6e6f742d6475652d666f722d746f6b656e730000000000604482015290519081900360640190fd5b611396818361104e565b6001600160a01b03808716600090815260046020908152604080832093891683529281528282209390935560029092529020546113d3908361104e565b6001600160a01b039094166000908152600260205260409020939093559392505050565b604080516001600160a01b038416602482015260448082018490528251808303909101815260649091019091526020810180516001600160e01b031663a9059cbb60e01b1790526112de9084906119c0565b8047101561149e576040805162461bcd60e51b815260206004820152601d60248201527f416464726573733a20696e73756666696369656e742062616c616e6365000000604482015290519081900360640190fd5b6040516000906001600160a01b0384169083908381818185875af1925050503d80600081146114e9576040519150601f19603f3d011682016040523d82523d6000602084013e6114ee565b606091505b50509050806112de5760405162461bcd60e51b815260040180806020018281038252603a815260200180611c91603a913960400191505060405180910390fd5b600080611683846001600160a01b03166318160ddd6040518163ffffffff1660e01b815260040160206040518083038186803b15801561156d57600080fd5b505afa158015611581573d6000803e3d6000fd5b505050506040513d602081101561159757600080fd5b5051604080516370a0823160e01b81526001600160a01b038781166004830152915161129f928916916370a08231916024808301926020929190829003018186803b1580156115e557600080fd5b505afa1580156115f9573d6000803e3d6000fd5b505050506040513d602081101561160f57600080fd5b5051604080516306a61f7560e51b815290516001600160a01b038a169163d4c3eea0916004808301926020929190829003018186803b15801561165157600080fd5b505afa158015611665573d6000803e3d6000fd5b505050506040513d602081101561167b57600080fd5b505190611900565b9050801561189c5773c02aaa39b223fe8d0a0e5c4f27ead9083c756cc26001600160a01b0316846001600160a01b031663fc0c546a6040518163ffffffff1660e01b815260040160206040518083038186803b1580156116e257600080fd5b505afa1580156116f6573d6000803e3d6000fd5b505050506040513d602081101561170c57600080fd5b50516001600160a01b031614156117255780915061189c565b6001600160a01b0380851660009081526008602090815260408083205481516350d25bcd60e01b81529151939416926350d25bcd92600480840193919291829003018186803b15801561177757600080fd5b505afa15801561178b573d6000803e3d6000fd5b505050506040513d60208110156117a157600080fd5b505160408051637e062a3560e11b815290519192506000916001600160a01b0388169163fc0c546a916004808301926020929190829003018186803b1580156117e957600080fd5b505afa1580156117fd573d6000803e3d6000fd5b505050506040513d602081101561181357600080fd5b50516040805163313ce56760e01b815290516001600160a01b039092169163313ce56791600480820192602092909190829003018186803b15801561185757600080fd5b505afa15801561186b573d6000803e3d6000fd5b505050506040513d602081101561188157600080fd5b50519050611897600a82900a61129f8486611900565b935050505b5092915050565b6000828211156118fa576040805162461bcd60e51b815260206004820152601e60248201527f536166654d6174683a207375627472616374696f6e206f766572666c6f770000604482015290519081900360640190fd5b50900390565b60008261190f575060006110ab565b8282028284828161191c57fe5b04146110a85760405162461bcd60e51b8152600401808060200182810382526021815260200180611cf16021913960400191505060405180910390fd5b60008082116119af576040805162461bcd60e51b815260206004820152601a60248201527f536166654d6174683a206469766973696f6e206279207a65726f000000000000604482015290519081900360640190fd5b8183816119b857fe5b049392505050565b6060611a15826040518060400160405280602081526020017f5361666545524332303a206c6f772d6c6576656c2063616c6c206661696c6564815250856001600160a01b0316611a719092919063ffffffff16565b8051909150156112de57808060200190516020811015611a3457600080fd5b50516112de5760405162461bcd60e51b815260040180806020018281038252602a815260200180611d32602a913960400191505060405180910390fd5b6060611a808484600085611a8a565b90505b9392505050565b606082471015611acb5760405162461bcd60e51b8152600401808060200182810382526026815260200180611ccb6026913960400191505060405180910390fd5b611ad485611be6565b611b25576040805162461bcd60e51b815260206004820152601d60248201527f416464726573733a2063616c6c20746f206e6f6e2d636f6e7472616374000000604482015290519081900360640190fd5b60006060866001600160a01b031685876040518082805190602001908083835b60208310611b645780518252601f199092019160209182019101611b45565b6001836020036101000a03801982511681845116808217855250505050505090500191505060006040518083038185875af1925050503d8060008114611bc6576040519150601f19603f3d011682016040523d82523d6000602084013e611bcb565b606091505b5091509150611bdb828286611bec565b979650505050505050565b3b151590565b60608315611bfb575081611a83565b825115611c0b5782518084602001fd5b8160405162461bcd60e51b81526004018080602001828103825283818151815260200191508051906020019080838360005b83811015611c55578181015183820152602001611c3d565b50505050905090810190601f168015611c825780820380516001836020036101000a031916815260200191505b509250505060405180910390fdfe416464726573733a20756e61626c6520746f2073656e642076616c75652c20726563697069656e74206d61792068617665207265766572746564416464726573733a20696e73756666696369656e742062616c616e636520666f722063616c6c536166654d6174683a206d756c7469706c69636174696f6e206f766572666c6f774f776e61626c653a2063616c6c6572206973206e6f7420746865206f776e65725361666545524332303a204552433230206f7065726174696f6e20646964206e6f742073756363656564a26469706673582212205ff8c953b494c0ad44fc28912c6425ea636708b65f1c8f8e1618eca6423c050564736f6c634300060c0033",
  "devdoc": {
    "details": "This contract allows to split ERC20 and Ether tokens among a group of accounts. The sender does not need to be aware that the token(s) (revenue) will be split in this way, since it is handled transparently by the contract. The split can be in equal parts or in any other arbitrary proportion. The way this is specified is by assigning each account to a number of shares. Of all the fund this contract receives, each account will then be able to claim an amount proportional to the percentage of total shares they were assigned. `RevenueSplitter` follows a pull revenue model. This means that revenue is not automatically forwarded to the accounts but kept in this contract, and the actual transfer is triggered as a separate step by calling the {release} or {releaseEther} function.",
    "kind": "dev",
    "methods": {
      "addVToken(address,address)": {
        "details": "Add vToken for vesper deployer top-up",
        "params": {
          "_oracle": "- Chainlink oracle address used for collateral token to ETH estimation Find chainlink oracle details here https://docs.chain.link/docs/ethereum-addresses/ For pool with WETH as collateral token, we do not need _oracle and _oracle can have ZERO address.",
          "_vToken": "- Vesper token"
        }
      },
      "constructor": {
        "details": "Creates an instance of `RevenueSplitter` where each account in `_payees` is assigned token(s) at the matching position in the `_share` array. All addresses in `payees` must be non-zero. Both arrays must have the same non-zero length, and there must be no duplicates in `payees`.",
        "params": {
          "_payees": "-  address(es) of payees eligible to receive token(s)",
          "_share": "- list of shares, transferred to payee in provided ratio."
        }
      },
      "owner()": {
        "details": "Returns the address of the current owner."
      },
      "release(address,address)": {
        "details": "Transfer of ERC20 token(s) to `payee` based on share and their previous withdrawals.",
        "params": {
          "_asset": "- ERC20 token's address",
          "_payee": "- payee's address to receive token(s)"
        }
      },
      "releaseEther(address)": {
        "details": "Transfer of ether to `payee` based on share and their previous withdrawals.",
        "params": {
          "_payee": "- payee's address to receive ether"
        }
      },
      "removeVToken(address)": {
        "details": "Remove vToken for vesper deployer top-up",
        "params": {
          "_vToken": "- Vesper token"
        }
      },
      "renounceOwnership()": {
        "details": "Leaves the contract without owner. It will not be possible to call `onlyOwner` functions anymore. Can only be called by the current owner. NOTE: Renouncing ownership will leave the contract without an owner, thereby removing any functionality that is only available to the owner."
      },
      "toggleAutoTopUp()": {
        "details": "Toggle auto top-up to true will enable top-up too."
      },
      "toggleTopUpStatus()": {
        "details": "Toggle top-up status to false will disable auto top-up too."
      },
      "transferOwnership(address)": {
        "details": "Transfers ownership of the contract to a new account (`newOwner`). Can only be called by the current owner."
      }
    },
    "title": "RevenueSplitter",
    "version": 1
  },
  "userdoc": {
    "kind": "user",
    "methods": {
      "toggleAutoTopUp()": {
        "notice": "Toggle auto top-up"
      },
      "toggleTopUpStatus()": {
        "notice": "Toggle top-up status"
      },
      "topUp()": {
        "notice": "top-up Vesper deployer address"
      }
    },
    "version": 1
  },
  "storageLayout": {
    "storage": [
      {
        "astId": 3302,
        "contract": "contracts/strategies/RevenueSplitter.sol:RevenueSplitter",
        "label": "_owner",
        "offset": 0,
        "slot": "0",
        "type": "t_address"
      },
      {
        "astId": 17905,
        "contract": "contracts/strategies/RevenueSplitter.sol:RevenueSplitter",
        "label": "totalShare",
        "offset": 0,
        "slot": "1",
        "type": "t_uint256"
      },
      {
        "astId": 17909,
        "contract": "contracts/strategies/RevenueSplitter.sol:RevenueSplitter",
        "label": "totalReleased",
        "offset": 0,
        "slot": "2",
        "type": "t_mapping(t_address,t_uint256)"
      },
      {
        "astId": 17913,
        "contract": "contracts/strategies/RevenueSplitter.sol:RevenueSplitter",
        "label": "share",
        "offset": 0,
        "slot": "3",
        "type": "t_mapping(t_address,t_uint256)"
      },
      {
        "astId": 17919,
        "contract": "contracts/strategies/RevenueSplitter.sol:RevenueSplitter",
        "label": "released",
        "offset": 0,
        "slot": "4",
        "type": "t_mapping(t_address,t_mapping(t_address,t_uint256))"
      },
      {
        "astId": 17922,
        "contract": "contracts/strategies/RevenueSplitter.sol:RevenueSplitter",
        "label": "payees",
        "offset": 0,
        "slot": "5",
        "type": "t_array(t_address)dyn_storage"
      },
      {
        "astId": 17925,
        "contract": "contracts/strategies/RevenueSplitter.sol:RevenueSplitter",
        "label": "vTokens",
        "offset": 0,
        "slot": "6",
        "type": "t_array(t_address)dyn_storage"
      },
      {
        "astId": 17929,
        "contract": "contracts/strategies/RevenueSplitter.sol:RevenueSplitter",
        "label": "isVToken",
        "offset": 0,
        "slot": "7",
        "type": "t_mapping(t_address,t_bool)"
      },
      {
        "astId": 17933,
        "contract": "contracts/strategies/RevenueSplitter.sol:RevenueSplitter",
        "label": "oracles",
        "offset": 0,
        "slot": "8",
        "type": "t_mapping(t_address,t_address)"
      },
      {
        "astId": 17950,
        "contract": "contracts/strategies/RevenueSplitter.sol:RevenueSplitter",
        "label": "isAutoTopUpEnabled",
        "offset": 0,
        "slot": "9",
        "type": "t_bool"
      },
      {
        "astId": 17952,
        "contract": "contracts/strategies/RevenueSplitter.sol:RevenueSplitter",
        "label": "isTopUpEnabled",
        "offset": 1,
        "slot": "9",
        "type": "t_bool"
      }
    ],
    "types": {
      "t_address": {
        "encoding": "inplace",
        "label": "address",
        "numberOfBytes": "20"
      },
      "t_array(t_address)dyn_storage": {
        "base": "t_address",
        "encoding": "dynamic_array",
        "label": "address[]",
        "numberOfBytes": "32"
      },
      "t_bool": {
        "encoding": "inplace",
        "label": "bool",
        "numberOfBytes": "1"
      },
      "t_mapping(t_address,t_address)": {
        "encoding": "mapping",
        "key": "t_address",
        "label": "mapping(address => address)",
        "numberOfBytes": "32",
        "value": "t_address"
      },
      "t_mapping(t_address,t_bool)": {
        "encoding": "mapping",
        "key": "t_address",
        "label": "mapping(address => bool)",
        "numberOfBytes": "32",
        "value": "t_bool"
      },
      "t_mapping(t_address,t_mapping(t_address,t_uint256))": {
        "encoding": "mapping",
        "key": "t_address",
        "label": "mapping(address => mapping(address => uint256))",
        "numberOfBytes": "32",
        "value": "t_mapping(t_address,t_uint256)"
      },
      "t_mapping(t_address,t_uint256)": {
        "encoding": "mapping",
        "key": "t_address",
        "label": "mapping(address => uint256)",
        "numberOfBytes": "32",
        "value": "t_uint256"
      },
      "t_uint256": {
        "encoding": "inplace",
        "label": "uint256",
        "numberOfBytes": "32"
      }
    }
  }
}