{
  "address": "0x7E381e9ef102605f65A6c3614C023EBd5Fa1ab78",
  "abi": [
    {
      "inputs": [
        {
          "internalType": "address",
          "name": "_controller",
          "type": "address"
        },
        {
          "internalType": "address",
          "name": "_pool",
          "type": "address"
        },
        {
          "internalType": "address",
          "name": "_receiptToken",
          "type": "address"
        }
      ],
      "stateMutability": "nonpayable",
      "type": "constructor"
    },
    {
      "anonymous": false,
      "inputs": [
        {
          "indexed": false,
          "internalType": "address",
          "name": "account",
          "type": "address"
        }
      ],
      "name": "Open",
      "type": "event"
    },
    {
      "anonymous": false,
      "inputs": [
        {
          "indexed": false,
          "internalType": "address",
          "name": "account",
          "type": "address"
        }
      ],
      "name": "Paused",
      "type": "event"
    },
    {
      "anonymous": false,
      "inputs": [
        {
          "indexed": false,
          "internalType": "address",
          "name": "account",
          "type": "address"
        }
      ],
      "name": "Shutdown",
      "type": "event"
    },
    {
      "anonymous": false,
      "inputs": [
        {
          "indexed": false,
          "internalType": "address",
          "name": "account",
          "type": "address"
        }
      ],
      "name": "Unpaused",
      "type": "event"
    },
    {
      "anonymous": false,
      "inputs": [
        {
          "indexed": true,
          "internalType": "address",
          "name": "previousSwapManager",
          "type": "address"
        },
        {
          "indexed": true,
          "internalType": "address",
          "name": "newSwapManager",
          "type": "address"
        }
      ],
      "name": "UpdatedSwapManager",
      "type": "event"
    },
    {
      "inputs": [],
      "name": "NAME",
      "outputs": [
        {
          "internalType": "string",
          "name": "",
          "type": "string"
        }
      ],
      "stateMutability": "view",
      "type": "function"
    },
    {
      "inputs": [],
      "name": "VERSION",
      "outputs": [
        {
          "internalType": "string",
          "name": "",
          "type": "string"
        }
      ],
      "stateMutability": "view",
      "type": "function"
    },
    {
      "inputs": [],
      "name": "approveToken",
      "outputs": [],
      "stateMutability": "nonpayable",
      "type": "function"
    },
    {
      "inputs": [],
      "name": "beforeWithdraw",
      "outputs": [],
      "stateMutability": "nonpayable",
      "type": "function"
    },
    {
      "inputs": [],
      "name": "collateralToken",
      "outputs": [
        {
          "internalType": "contract IERC20",
          "name": "",
          "type": "address"
        }
      ],
      "stateMutability": "view",
      "type": "function"
    },
    {
      "inputs": [],
      "name": "controller",
      "outputs": [
        {
          "internalType": "contract IController",
          "name": "",
          "type": "address"
        }
      ],
      "stateMutability": "view",
      "type": "function"
    },
    {
      "inputs": [
        {
          "internalType": "uint256",
          "name": "amount",
          "type": "uint256"
        }
      ],
      "name": "convertFrom18",
      "outputs": [
        {
          "internalType": "uint256",
          "name": "",
          "type": "uint256"
        }
      ],
      "stateMutability": "pure",
      "type": "function"
    },
    {
      "inputs": [],
      "name": "createKeeperList",
      "outputs": [],
      "stateMutability": "nonpayable",
      "type": "function"
    },
    {
      "inputs": [
        {
          "internalType": "uint256",
          "name": "_amount",
          "type": "uint256"
        }
      ],
      "name": "deposit",
      "outputs": [],
      "stateMutability": "nonpayable",
      "type": "function"
    },
    {
      "inputs": [],
      "name": "depositAll",
      "outputs": [],
      "stateMutability": "nonpayable",
      "type": "function"
    },
    {
      "inputs": [],
      "name": "interestEarned",
      "outputs": [
        {
          "internalType": "uint256",
          "name": "collateralEarned",
          "type": "uint256"
        }
      ],
      "stateMutability": "view",
      "type": "function"
    },
    {
      "inputs": [
        {
          "internalType": "address",
          "name": "_token",
          "type": "address"
        }
      ],
      "name": "isReservedToken",
      "outputs": [
        {
          "internalType": "bool",
          "name": "",
          "type": "bool"
        }
      ],
      "stateMutability": "view",
      "type": "function"
    },
    {
      "inputs": [],
      "name": "isUpgradable",
      "outputs": [
        {
          "internalType": "bool",
          "name": "",
          "type": "bool"
        }
      ],
      "stateMutability": "view",
      "type": "function"
    },
    {
      "inputs": [],
      "name": "keepers",
      "outputs": [
        {
          "internalType": "contract IAddressListExt",
          "name": "",
          "type": "address"
        }
      ],
      "stateMutability": "view",
      "type": "function"
    },
    {
      "inputs": [],
      "name": "migrateIn",
      "outputs": [],
      "stateMutability": "nonpayable",
      "type": "function"
    },
    {
      "inputs": [],
      "name": "migrateOut",
      "outputs": [],
      "stateMutability": "nonpayable",
      "type": "function"
    },
    {
      "inputs": [],
      "name": "pause",
      "outputs": [],
      "stateMutability": "nonpayable",
      "type": "function"
    },
    {
      "inputs": [],
      "name": "paused",
      "outputs": [
        {
          "internalType": "bool",
          "name": "",
          "type": "bool"
        }
      ],
      "stateMutability": "view",
      "type": "function"
    },
    {
      "inputs": [],
      "name": "pool",
      "outputs": [
        {
          "internalType": "address",
          "name": "",
          "type": "address"
        }
      ],
      "stateMutability": "view",
      "type": "function"
    },
    {
      "inputs": [],
      "name": "rebalance",
      "outputs": [],
      "stateMutability": "nonpayable",
      "type": "function"
    },
    {
      "inputs": [],
      "name": "receiptToken",
      "outputs": [
        {
          "internalType": "address",
          "name": "",
          "type": "address"
        }
      ],
      "stateMutability": "view",
      "type": "function"
    },
    {
      "inputs": [],
      "name": "resetApproval",
      "outputs": [],
      "stateMutability": "nonpayable",
      "type": "function"
    },
    {
      "inputs": [],
      "name": "stopEverything",
      "outputs": [
        {
          "internalType": "bool",
          "name": "",
          "type": "bool"
        }
      ],
      "stateMutability": "view",
      "type": "function"
    },
    {
      "inputs": [],
      "name": "swapManager",
      "outputs": [
        {
          "internalType": "contract ISwapManager",
          "name": "",
          "type": "address"
        }
      ],
      "stateMutability": "view",
      "type": "function"
    },
    {
      "inputs": [
        {
          "internalType": "address",
          "name": "_fromToken",
          "type": "address"
        }
      ],
      "name": "sweepErc20",
      "outputs": [],
      "stateMutability": "nonpayable",
      "type": "function"
    },
    {
      "inputs": [],
      "name": "token",
      "outputs": [
        {
          "internalType": "address",
          "name": "",
          "type": "address"
        }
      ],
      "stateMutability": "view",
      "type": "function"
    },
    {
      "inputs": [],
      "name": "totalLocked",
      "outputs": [
        {
          "internalType": "uint256",
          "name": "",
          "type": "uint256"
        }
      ],
      "stateMutability": "view",
      "type": "function"
    },
    {
      "inputs": [],
      "name": "unpause",
      "outputs": [],
      "stateMutability": "nonpayable",
      "type": "function"
    },
    {
      "inputs": [
        {
          "internalType": "address",
          "name": "_swapManager",
          "type": "address"
        }
      ],
      "name": "updateSwapManager",
      "outputs": [],
      "stateMutability": "nonpayable",
      "type": "function"
    },
    {
      "inputs": [
        {
          "internalType": "uint256",
          "name": "_amount",
          "type": "uint256"
        }
      ],
      "name": "withdraw",
      "outputs": [],
      "stateMutability": "nonpayable",
      "type": "function"
    },
    {
      "inputs": [],
      "name": "withdrawAll",
      "outputs": [],
      "stateMutability": "nonpayable",
      "type": "function"
    }
  ],
  "transactionHash": "0x940539085eaa9f7c16f6a6a23c11f971449bd3d6da49ddd1250c576c9054a064",
  "args": [
    "0xa4F1671d3Aee73C05b552d57f2d16d3cfcBd0217",
    "0xcA0c34A3F35520B9490C1d58b35A19AB64014D80",
    "0xB4eDcEFd59750144882170FCc52ffeD40BfD5f7d"
  ],
  "solcInputHash": "e5e7147d599697beb1e4c79c31cf8bbc",
  "bytecode": "0x6101206040526000805462010000600160b01b03191675e382d9f2394a359b01006faa8a1864b8a60d271000001790553480156200003c57600080fd5b506040516200401038038062004010833981810160405260608110156200006257600080fd5b50805160208201516040909201519091908282828282826001600160a01b038316620000d5576040805162461bcd60e51b815260206004820152601a60248201527f636f6e74726f6c6c65722d616464726573732d69732d7a65726f000000000000604482015290519081900360640190fd5b826001600160a01b0316635b16ebb7836040518263ffffffff1660e01b815260040180826001600160a01b0316815260200191505060206040518083038186803b1580156200012357600080fd5b505afa15801562000138573d6000803e3d6000fd5b505050506040513d60208110156200014f57600080fd5b505162000196576040805162461bcd60e51b815260206004820152601060248201526f1b9bdd0b584b5d985b1a590b5c1bdbdb60821b604482015290519081900360640190fd5b6001600160601b0319606084811b821660805283901b1660e05260408051637e062a3560e11b815290516001600160a01b0384169163fc0c546a916004808301926020929190829003018186803b158015620001f157600080fd5b505afa15801562000206573d6000803e3d6000fd5b505050506040513d60208110156200021d57600080fd5b50516001600160601b0319606091821b811660a05291811b821660c0529390931b909216610100525050505050505060805160601c60a05160601c60c05160601c60e05160601c6101005160601c613c2b620003e5600039806105c852806108985280610a575280610b355280610bdc5280610d7b5280610e025280611060528061110552806111de5280612019528061204252806124d2528061256d52806125fa52806127fc52806128e65280612c545280612d155280612e685280612f09528061306e528061310f528061315a52806131fb52806132aa525080610436528061049c5280610cf252806111b452806113d852806119925280611a485280611b6f5280611ead5280611fc552806127d4528061298f5280612a4c5280612b535280612c325280612c835280612d6e5280612e47525080611e055280611e5052508061076752806113a952806116cc5280611b405280611ece5280611f6f5280611fa35280611ff7528061277b52806127b252806129b052508061045a528061053e5280610c6f5280610ed4528061147352806114f65280611588528061164952806116f05280611bfe5280611e295280612a1d5280612b245280612d3f5250613c2b6000f3fe608060405234801561001057600080fd5b50600436106101e55760003560e01c8063853828b61161010f578063d9fe3eae116100a2578063f77c479111610071578063f77c4791146103ff578063fb589de214610407578063fc0c546a14610424578063ffa1ad741461042c576101e5565b8063d9fe3eae146103c1578063de5f6268146103e7578063ea7c8502146103ef578063ec78e832146103f7576101e5565b8063b000c328116100de578063b000c3281461038c578063b2016bd414610394578063b3fc176c1461039c578063b6b55f25146103a4576101e5565b8063853828b6146102f7578063951dc22c146102ff57806399b71d5c14610307578063a3f4df7e1461030f576101e5565b80634938649a116101875780635c975abb116101565780635c975abb146102d7578063709d039d146102df5780637d7c2a1c146102e75780638456cb59146102ef576101e5565b80634938649a146102995780634c36fad7146102a15780635479d940146102c757806356891412146102cf576101e5565b8063374261ab116101c3578063374261ab146102355780633f4ba83a1461024f578063419f775314610257578063440d72481461025f576101e5565b806316f0115b146101ea5780632e1a7d4d1461020e578063330b8b711461022d575b600080fd5b6101f2610434565b604080516001600160a01b039092168252519081900360200190f35b61022b6004803603602081101561022457600080fd5b5035610458565b005b61022b61053c565b61023d6105c3565b60408051918252519081900360200190f35b61022b610c6d565b61022b610cf0565b6102856004803603602081101561027557600080fd5b50356001600160a01b0316610d76565b604080519115158252519081900360200190f35b610285610ec4565b61022b600480360360208110156102b757600080fd5b50356001600160a01b0316610ed2565b61028561105c565b61023d6110fd565b61028561126a565b6101f2611273565b61022b611288565b61022b611471565b61022b6114f4565b6101f2611577565b61022b611586565b610317611616565b6040805160208082528351818301528351919283929083019185019080838360005b83811015610351578181015183820152602001610339565b50505050905090810190601f16801561037e5780820380516001836020036101000a031916815260200191505b509250505060405180910390f35b61022b611647565b6101f26116ca565b61022b6116ee565b61022b600480360360208110156103ba57600080fd5b5035611771565b61022b600480360360208110156103d757600080fd5b50356001600160a01b031661184c565b61022b611a71565b61022b611bfc565b6101f2611e03565b6101f2611e27565b61023d6004803603602081101561041d57600080fd5b5035611e4b565b6101f2611e4e565b610317611e72565b7f000000000000000000000000000000000000000000000000000000000000000081565b7f00000000000000000000000000000000000000000000000000000000000000006001600160a01b031661048a611e93565b6001600160a01b031614806104d757507f00000000000000000000000000000000000000000000000000000000000000006001600160a01b03166104cc611e93565b6001600160a01b0316145b610528576040805162461bcd60e51b815260206004820152601860248201527f63616c6c65722d69732d6e6f742d617574686f72697a65640000000000000000604482015290519081900360640190fd5b6105306105c1565b61053981611e97565b50565b7f00000000000000000000000000000000000000000000000000000000000000006001600160a01b031661056e611e93565b6001600160a01b0316146105b7576040805162461bcd60e51b815260206004820152601c6024820152600080516020613ba0833981519152604482015290519081900360640190fd5b6105c16000611f96565b565b6000807f00000000000000000000000000000000000000000000000000000000000000006001600160a01b0316638bc6beb26040518163ffffffff1660e01b815260040160206040518083038186803b15801561061f57600080fd5b505afa158015610633573d6000803e3d6000fd5b505050506040513d602081101561064957600080fd5b505190506001600160a01b03811615610894576000816001600160a01b031663f7c618c16040518163ffffffff1660e01b815260040160206040518083038186803b15801561069757600080fd5b505afa1580156106ab573d6000803e3d6000fd5b505050506040513d60208110156106c157600080fd5b50516040805163402914f560e01b815230600482015290519192506000916001600160a01b0385169163402914f5916024808301926020929190829003018186803b15801561070f57600080fd5b505afa158015610723573d6000803e3d6000fd5b505050506040513d602081101561073957600080fd5b505190508015610891576000805460408051631d1f307960e31b81526001600160a01b0386811660048301527f000000000000000000000000000000000000000000000000000000000000000081166024830152604482018690529151620100009093049091169263e8f983c892606480840193829003018186803b1580156107c157600080fd5b505afa1580156107d5573d6000803e3d6000fd5b505050506040513d6000823e601f3d908101601f1916820160405260608110156107fe57600080fd5b8101908080516040519392919084600160201b82111561081d57600080fd5b90830190602082018581111561083257600080fd5b82518660208202830111600160201b8211171561084e57600080fd5b82525081516020918201928201910280838360005b8381101561087b578181015183820152602001610863565b5050505091909101604052506020015196505050505b50505b60607f00000000000000000000000000000000000000000000000000000000000000006001600160a01b031663b49a60bb6040518163ffffffff1660e01b815260040160006040518083038186803b1580156108ef57600080fd5b505afa158015610903573d6000803e3d6000fd5b505050506040513d6000823e601f3d908101601f19168201604052602081101561092c57600080fd5b8101908080516040519392919084600160201b82111561094b57600080fd5b90830190602082018581111561096057600080fd5b82518660208202830111600160201b8211171561097c57600080fd5b82525081516020918201928201910280838360005b838110156109a9578181015183820152602001610991565b505050509190910160405250508251929350600091508190505b82811015610b265760008482815181106109d957fe5b60200260200101516001600160a01b031663d4c3eea06040518163ffffffff1660e01b815260040160206040518083038186803b158015610a1957600080fd5b505afa158015610a2d573d6000803e3d6000fd5b505050506040513d6020811015610a4357600080fd5b505185519091506000906001600160a01b037f00000000000000000000000000000000000000000000000000000000000000001690639f2b283390889086908110610a8a57fe5b60200260200101516040518263ffffffff1660e01b815260040180826001600160a01b0316815260200191505060206040518083038186803b158015610acf57600080fd5b505afa158015610ae3573d6000803e3d6000fd5b505050506040513d6020811015610af957600080fd5b5051905080821115610b1c57610b19610b128383612261565b85906122c3565b93505b50506001016109c3565b508015610c6657610c63610c5c7f00000000000000000000000000000000000000000000000000000000000000006001600160a01b03166318160ddd6040518163ffffffff1660e01b815260040160206040518083038186803b158015610b8c57600080fd5b505afa158015610ba0573d6000803e3d6000fd5b505050506040513d6020811015610bb657600080fd5b5051604080516370a0823160e01b81523060048201529051610c56916001600160a01b037f000000000000000000000000000000000000000000000000000000000000000016916370a0823191602480820192602092909190829003018186803b158015610c2357600080fd5b505afa158015610c37573d6000803e3d6000fd5b505050506040513d6020811015610c4d57600080fd5b5051859061231d565b90612376565b86906122c3565b94505b5050505090565b7f00000000000000000000000000000000000000000000000000000000000000006001600160a01b0316610c9f611e93565b6001600160a01b031614610ce8576040805162461bcd60e51b815260206004820152601c6024820152600080516020613ba0833981519152604482015290519081900360640190fd5b6105c16123dd565b7f00000000000000000000000000000000000000000000000000000000000000006001600160a01b0316610d22611e93565b6001600160a01b0316146105c1576040805162461bcd60e51b815260206004820152601660248201527518d85b1b195c8b5a5ccb5b9bdd0b5d1a194b5c1bdbdb60521b604482015290519081900360640190fd5b6000807f00000000000000000000000000000000000000000000000000000000000000006001600160a01b0316638bc6beb26040518163ffffffff1660e01b815260040160206040518083038186803b158015610dd257600080fd5b505afa158015610de6573d6000803e3d6000fd5b505050506040513d6020811015610dfc57600080fd5b505190507f00000000000000000000000000000000000000000000000000000000000000006001600160a01b039081169084161480610ebd57506001600160a01b03811615801590610ebd5750806001600160a01b031663f7c618c16040518163ffffffff1660e01b815260040160206040518083038186803b158015610e8257600080fd5b505afa158015610e96573d6000803e3d6000fd5b505050506040513d6020811015610eac57600080fd5b50516001600160a01b038481169116145b9392505050565b600054610100900460ff1681565b7f00000000000000000000000000000000000000000000000000000000000000006001600160a01b0316610f04611e93565b6001600160a01b031614610f4d576040805162461bcd60e51b815260206004820152601c6024820152600080516020613ba0833981519152604482015290519081900360640190fd5b6001600160a01b038116610f9d576040805162461bcd60e51b8152602060048201526012602482015271736d2d616464726573732d69732d7a65726f60701b604482015290519081900360640190fd5b6000546001600160a01b0382811662010000909204161415610ff3576040805162461bcd60e51b815260206004820152600a602482015269736d2d69732d73616d6560b01b604482015290519081900360640190fd5b600080546040516001600160a01b03808516936201000090930416917f2d19927e7cac08ceb98b38898a4fdff6da6a27295b9a2d62fe250408ebe044e191a3600080546001600160a01b03909216620100000262010000600160b01b0319909216919091179055565b60007f00000000000000000000000000000000000000000000000000000000000000006001600160a01b03166370a08231306040518263ffffffff1660e01b815260040180826001600160a01b0316815260200191505060206040518083038186803b1580156110cb57600080fd5b505afa1580156110df573d6000803e3d6000fd5b505050506040513d60208110156110f557600080fd5b505115905090565b6000806112597f00000000000000000000000000000000000000000000000000000000000000006001600160a01b03166370a08231306040518263ffffffff1660e01b815260040180826001600160a01b0316815260200191505060206040518083038186803b15801561117057600080fd5b505afa158015611184573d6000803e3d6000fd5b505050506040513d602081101561119a57600080fd5b5051604080516370a0823160e01b81526001600160a01b037f00000000000000000000000000000000000000000000000000000000000000008116600483015291517f0000000000000000000000000000000000000000000000000000000000000000909216916370a0823191602480820192602092909190829003018186803b15801561122757600080fd5b505afa15801561123b573d6000803e3d6000fd5b505050506040513d602081101561125157600080fd5b5051906122c3565b9050611264816124cd565b91505090565b60005460ff1681565b6000546201000090046001600160a01b031681565b60005460ff16156112d3576040805162461bcd60e51b815260206004820152601060248201526f14185d5cd8589b194e881c185d5cd95960821b604482015290519081900360640190fd5b6001546001600160a01b0316635dbe47e86112ec611e93565b6040518263ffffffff1660e01b815260040180826001600160a01b0316815260200191505060206040518083038186803b15801561132957600080fd5b505afa15801561133d573d6000803e3d6000fd5b505050506040513d602081101561135357600080fd5b505161139d576040805162461bcd60e51b815260206004820152601460248201527331b0b63632b916b4b996b737ba16b5b2b2b832b960611b604482015290519081900360640190fd5b6113a56125f6565b60007f00000000000000000000000000000000000000000000000000000000000000006001600160a01b03166370a082317f00000000000000000000000000000000000000000000000000000000000000006040518263ffffffff1660e01b815260040180826001600160a01b0316815260200191505060206040518083038186803b15801561143457600080fd5b505afa158015611448573d6000803e3d6000fd5b505050506040513d602081101561145e57600080fd5b50519050801561053957610539816127a5565b7f00000000000000000000000000000000000000000000000000000000000000006001600160a01b03166114a3611e93565b6001600160a01b0316146114ec576040805162461bcd60e51b815260206004820152601c6024820152600080516020613ba0833981519152604482015290519081900360640190fd5b6105c1612860565b7f00000000000000000000000000000000000000000000000000000000000000006001600160a01b0316611526611e93565b6001600160a01b03161461156f576040805162461bcd60e51b815260206004820152601c6024820152600080516020613ba0833981519152604482015290519081900360640190fd5b6105c16128e1565b6001546001600160a01b031681565b7f00000000000000000000000000000000000000000000000000000000000000006001600160a01b03166115b8611e93565b6001600160a01b031614611601576040805162461bcd60e51b815260206004820152601c6024820152600080516020613ba0833981519152604482015290519081900360640190fd5b61160b6000611f96565b6105c1600019611f96565b6040518060400160405280601581526020017453747261746567792d56657370657256332d44414960581b81525081565b7f00000000000000000000000000000000000000000000000000000000000000006001600160a01b0316611679611e93565b6001600160a01b0316146116c2576040805162461bcd60e51b815260206004820152601c6024820152600080516020613ba0833981519152604482015290519081900360640190fd5b6105c1612a1b565b7f000000000000000000000000000000000000000000000000000000000000000081565b7f00000000000000000000000000000000000000000000000000000000000000006001600160a01b0316611720611e93565b6001600160a01b031614611769576040805162461bcd60e51b815260206004820152601c6024820152600080516020613ba0833981519152604482015290519081900360640190fd5b6105c1612d3d565b6001546001600160a01b0316635dbe47e861178a611e93565b6040518263ffffffff1660e01b815260040180826001600160a01b0316815260200191505060206040518083038186803b1580156117c757600080fd5b505afa1580156117db573d6000803e3d6000fd5b505050506040513d60208110156117f157600080fd5b505161183b576040805162461bcd60e51b815260206004820152601460248201527331b0b63632b916b4b996b737ba16b5b2b2b832b960611b604482015290519081900360640190fd5b6118436105c1565b610539816127a5565b6001546001600160a01b0316635dbe47e8611865611e93565b6040518263ffffffff1660e01b815260040180826001600160a01b0316815260200191505060206040518083038186803b1580156118a257600080fd5b505afa1580156118b6573d6000803e3d6000fd5b505050506040513d60208110156118cc57600080fd5b5051611916576040805162461bcd60e51b815260206004820152601460248201527331b0b63632b916b4b996b737ba16b5b2b2b832b960611b604482015290519081900360640190fd5b61191f81610d76565b15611968576040805162461bcd60e51b815260206004820152601460248201527306e6f742d616c6c6f7765642d746f2d73776565760641b604482015290519081900360640190fd5b6001600160a01b03811673eeeeeeeeeeeeeeeeeeeeeeeeeeeeeeeeeeeeeeee14156119bc576119b77f000000000000000000000000000000000000000000000000000000000000000047612f30565b610539565b6000816001600160a01b03166370a08231306040518263ffffffff1660e01b815260040180826001600160a01b0316815260200191505060206040518083038186803b158015611a0b57600080fd5b505afa158015611a1f573d6000803e3d6000fd5b505050506040513d6020811015611a3557600080fd5b50519050611a6d6001600160a01b0383167f000000000000000000000000000000000000000000000000000000000000000083613015565b5050565b6001546001600160a01b0316635dbe47e8611a8a611e93565b6040518263ffffffff1660e01b815260040180826001600160a01b0316815260200191505060206040518083038186803b158015611ac757600080fd5b505afa158015611adb573d6000803e3d6000fd5b505050506040513d6020811015611af157600080fd5b5051611b3b576040805162461bcd60e51b815260206004820152601460248201527331b0b63632b916b4b996b737ba16b5b2b2b832b960611b604482015290519081900360640190fd5b6105c17f00000000000000000000000000000000000000000000000000000000000000006001600160a01b03166370a082317f00000000000000000000000000000000000000000000000000000000000000006040518263ffffffff1660e01b815260040180826001600160a01b0316815260200191505060206040518083038186803b158015611bcb57600080fd5b505afa158015611bdf573d6000803e3d6000fd5b505050506040513d6020811015611bf557600080fd5b5051611771565b7f00000000000000000000000000000000000000000000000000000000000000006001600160a01b0316611c2e611e93565b6001600160a01b031614611c77576040805162461bcd60e51b815260206004820152601c6024820152600080516020613ba0833981519152604482015290519081900360640190fd5b6001546001600160a01b031615611cd5576040805162461bcd60e51b815260206004820152601b60248201527f6b65657065722d6c6973742d616c72656164792d637265617465640000000000604482015290519081900360640190fd5b600073d57b41649f822c51a73c44ba0b3da4a880af00299050806001600160a01b0316630fab4d256040518163ffffffff1660e01b8152600401602060405180830381600087803b158015611d2957600080fd5b505af1158015611d3d573d6000803e3d6000fd5b505050506040513d6020811015611d5357600080fd5b5051600180546001600160a01b0319166001600160a01b03928316179081905516632f2ff15d7f679f35d3aa86a98333c7fc7439a0bc12a13be742ae62a4c1cc3820782a2e11a6611da2611e93565b6040518363ffffffff1660e01b815260040180838152602001826001600160a01b0316815260200192505050600060405180830381600087803b158015611de857600080fd5b505af1158015611dfc573d6000803e3d6000fd5b5050505050565b7f000000000000000000000000000000000000000000000000000000000000000081565b7f000000000000000000000000000000000000000000000000000000000000000081565b90565b7f000000000000000000000000000000000000000000000000000000000000000090565b60405180604001604052806005815260200164322e302e3960d81b81525081565b3390565b611ea8611ea382613067565b613156565b6105397f00000000000000000000000000000000000000000000000000000000000000007f00000000000000000000000000000000000000000000000000000000000000006001600160a01b03166370a08231306040518263ffffffff1660e01b815260040180826001600160a01b0316815260200191505060206040518083038186803b158015611f3957600080fd5b505afa158015611f4d573d6000803e3d6000fd5b505050506040513d6020811015611f6357600080fd5b50516001600160a01b037f0000000000000000000000000000000000000000000000000000000000000000169190613015565b611fea6001600160a01b037f0000000000000000000000000000000000000000000000000000000000000000167f00000000000000000000000000000000000000000000000000000000000000008361336e565b61203e6001600160a01b037f0000000000000000000000000000000000000000000000000000000000000000167f00000000000000000000000000000000000000000000000000000000000000008361336e565b60007f00000000000000000000000000000000000000000000000000000000000000006001600160a01b0316638bc6beb26040518163ffffffff1660e01b815260040160206040518083038186803b15801561209957600080fd5b505afa1580156120ad573d6000803e3d6000fd5b505050506040513d60208110156120c357600080fd5b505190506001600160a01b03811615611a6d576000816001600160a01b031663f7c618c16040518163ffffffff1660e01b815260040160206040518083038186803b15801561211157600080fd5b505afa158015612125573d6000803e3d6000fd5b505050506040513d602081101561213b57600080fd5b5051905060005b600060029054906101000a90046001600160a01b03166001600160a01b031663c2fba6676040518163ffffffff1660e01b815260040160206040518083038186803b15801561219057600080fd5b505afa1580156121a4573d6000803e3d6000fd5b505050506040513d60208110156121ba57600080fd5b505181101561225b5760005460408051636e74a6f760e01b8152600481018490529051612253926201000090046001600160a01b031691636e74a6f7916024808301926020929190829003018186803b15801561221657600080fd5b505afa15801561222a573d6000803e3d6000fd5b505050506040513d602081101561224057600080fd5b50516001600160a01b038416908661336e565b600101612142565b50505050565b6000828211156122b8576040805162461bcd60e51b815260206004820152601e60248201527f536166654d6174683a207375627472616374696f6e206f766572666c6f770000604482015290519081900360640190fd5b508082035b92915050565b600082820183811015610ebd576040805162461bcd60e51b815260206004820152601b60248201527f536166654d6174683a206164646974696f6e206f766572666c6f770000000000604482015290519081900360640190fd5b60008261232c575060006122bd565b8282028284828161233957fe5b0414610ebd5760405162461bcd60e51b8152600401808060200182810382526021815260200180613b556021913960400191505060405180910390fd5b60008082116123cc576040805162461bcd60e51b815260206004820152601a60248201527f536166654d6174683a206469766973696f6e206279207a65726f000000000000604482015290519081900360640190fd5b8183816123d557fe5b049392505050565b60005460ff1661242b576040805162461bcd60e51b815260206004820152601460248201527314185d5cd8589b194e881b9bdd081c185d5cd95960621b604482015290519081900360640190fd5b600054610100900460ff161561247d576040805162461bcd60e51b81526020600482015260126024820152712830bab9b0b136329d1039b43aba3237bbb760711b604482015290519081900360640190fd5b6000805460ff191690557f5db9ee0a495bf2e6ff9c91a7834c1ba4fdd244a5e8aa4e537bd38aeae4b073aa6124b0611e93565b604080516001600160a01b039092168252519081900360200190a1565b6000807f00000000000000000000000000000000000000000000000000000000000000006001600160a01b03166318160ddd6040518163ffffffff1660e01b815260040160206040518083038186803b15801561252957600080fd5b505afa15801561253d573d6000803e3d6000fd5b505050506040513d602081101561255357600080fd5b5051905080612563576000610ebd565b610ebd81610c56857f00000000000000000000000000000000000000000000000000000000000000006001600160a01b031663d4c3eea06040518163ffffffff1660e01b815260040160206040518083038186803b1580156125c457600080fd5b505afa1580156125d8573d6000803e3d6000fd5b505050506040513d60208110156125ee57600080fd5b50519061231d565b60007f00000000000000000000000000000000000000000000000000000000000000006001600160a01b0316638bc6beb26040518163ffffffff1660e01b815260040160206040518083038186803b15801561265157600080fd5b505afa158015612665573d6000803e3d6000fd5b505050506040513d602081101561267b57600080fd5b505190506001600160a01b03811615610539576000816001600160a01b031663f7c618c16040518163ffffffff1660e01b815260040160206040518083038186803b1580156126c957600080fd5b505afa1580156126dd573d6000803e3d6000fd5b505050506040513d60208110156126f357600080fd5b5051604080516370a0823160e01b815230600482015290519192506000916001600160a01b038416916370a08231916024808301926020929190829003018186803b15801561274157600080fd5b505afa158015612755573d6000803e3d6000fd5b505050506040513d602081101561276b57600080fd5b5051905080156127a0576127a0827f000000000000000000000000000000000000000000000000000000000000000083613481565b505050565b6127fa6001600160a01b037f0000000000000000000000000000000000000000000000000000000000000000167f000000000000000000000000000000000000000000000000000000000000000030846137d0565b7f00000000000000000000000000000000000000000000000000000000000000006001600160a01b031663b6b55f25826040518263ffffffff1660e01b815260040180828152602001915050600060405180830381600087803b158015611de857600080fd5b60005460ff16156128ab576040805162461bcd60e51b815260206004820152601060248201526f14185d5cd8589b194e881c185d5cd95960821b604482015290519081900360640190fd5b6000805460ff191660011790557f62e78cea01bee320cd4e420270b5ea74000d11b0c9f74754ebdbfc544b05a2586124b0611e93565b6129827f00000000000000000000000000000000000000000000000000000000000000006001600160a01b03166370a08231306040518263ffffffff1660e01b815260040180826001600160a01b0316815260200191505060206040518083038186803b15801561295157600080fd5b505afa158015612965573d6000803e3d6000fd5b505050506040513d602081101561297b57600080fd5b5051613156565b61298a6125f6565b6105c17f00000000000000000000000000000000000000000000000000000000000000007f00000000000000000000000000000000000000000000000000000000000000006001600160a01b03166370a08231306040518263ffffffff1660e01b815260040180826001600160a01b0316815260200191505060206040518083038186803b158015611f3957600080fd5b7f00000000000000000000000000000000000000000000000000000000000000006001600160a01b0316635b16ebb77f00000000000000000000000000000000000000000000000000000000000000006040518263ffffffff1660e01b815260040180826001600160a01b0316815260200191505060206040518083038186803b158015612aa857600080fd5b505afa158015612abc573d6000803e3d6000fd5b505050506040513d6020811015612ad257600080fd5b5051612b18576040805162461bcd60e51b815260206004820152601060248201526f1b9bdd0b584b5d985b1a590b5c1bdbdb60821b604482015290519081900360640190fd5b306001600160a01b03167f00000000000000000000000000000000000000000000000000000000000000006001600160a01b031663228bfd9f7f00000000000000000000000000000000000000000000000000000000000000006040518263ffffffff1660e01b815260040180826001600160a01b0316815260200191505060206040518083038186803b158015612baf57600080fd5b505afa158015612bc3573d6000803e3d6000fd5b505050506040513d6020811015612bd957600080fd5b50516001600160a01b031614612c2d576040805162461bcd60e51b81526020600482015260146024820152736e6f742d612d76616c69642d737472617465677960601b604482015290519081900360640190fd5b6105c17f0000000000000000000000000000000000000000000000000000000000000000307f00000000000000000000000000000000000000000000000000000000000000006001600160a01b03166370a082317f00000000000000000000000000000000000000000000000000000000000000006040518263ffffffff1660e01b815260040180826001600160a01b0316815260200191505060206040518083038186803b158015612cdf57600080fd5b505afa158015612cf3573d6000803e3d6000fd5b505050506040513d6020811015612d0957600080fd5b50516001600160a01b037f0000000000000000000000000000000000000000000000000000000000000000169291906137d0565b7f00000000000000000000000000000000000000000000000000000000000000006001600160a01b0316635b16ebb77f00000000000000000000000000000000000000000000000000000000000000006040518263ffffffff1660e01b815260040180826001600160a01b0316815260200191505060206040518083038186803b158015612dca57600080fd5b505afa158015612dde573d6000803e3d6000fd5b505050506040513d6020811015612df457600080fd5b5051612e3a576040805162461bcd60e51b815260206004820152601060248201526f1b9bdd0b584b5d985b1a590b5c1bdbdb60821b604482015290519081900360640190fd5b612e42612860565b6105c17f00000000000000000000000000000000000000000000000000000000000000007f00000000000000000000000000000000000000000000000000000000000000006001600160a01b03166370a08231306040518263ffffffff1660e01b815260040180826001600160a01b0316815260200191505060206040518083038186803b158015612ed357600080fd5b505afa158015612ee7573d6000803e3d6000fd5b505050506040513d6020811015612efd57600080fd5b50516001600160a01b037f0000000000000000000000000000000000000000000000000000000000000000169190613015565b80471015612f85576040805162461bcd60e51b815260206004820152601d60248201527f416464726573733a20696e73756666696369656e742062616c616e6365000000604482015290519081900360640190fd5b6040516000906001600160a01b0384169083908381818185875af1925050503d8060008114612fd0576040519150601f19603f3d011682016040523d82523d6000602084013e612fd5565b606091505b50509050806127a05760405162461bcd60e51b815260040180806020018281038252603a815260200180613af5603a913960400191505060405180910390fd5b604080516001600160a01b038416602482015260448082018490528251808303909101815260649091019091526020810180516001600160e01b031663a9059cbb60e01b1790526127a0908490613826565b60006122bd7f00000000000000000000000000000000000000000000000000000000000000006001600160a01b031663d4c3eea06040518163ffffffff1660e01b815260040160206040518083038186803b1580156130c557600080fd5b505afa1580156130d9573d6000803e3d6000fd5b505050506040513d60208110156130ef57600080fd5b5051604080516318160ddd60e01b81529051610c56916001600160a01b037f000000000000000000000000000000000000000000000000000000000000000016916318160ddd91600480820192602092909190829003018186803b158015610c2357600080fd5b60007f00000000000000000000000000000000000000000000000000000000000000006001600160a01b03166370a08231306040518263ffffffff1660e01b815260040180826001600160a01b0316815260200191505060206040518083038186803b1580156131c557600080fd5b505afa1580156131d9573d6000803e3d6000fd5b505050506040513d60208110156131ef57600080fd5b505190508115611a6d577f00000000000000000000000000000000000000000000000000000000000000006001600160a01b0316632e1a7d4d836040518263ffffffff1660e01b815260040180828152602001915050600060405180830381600087803b15801561325f57600080fd5b505af1158015613273573d6000803e3d6000fd5b5050505061328a828261226190919063ffffffff16565b604080516370a0823160e01b815230600482015290516001600160a01b037f000000000000000000000000000000000000000000000000000000000000000016916370a08231916024808301926020929190829003018186803b1580156132f057600080fd5b505afa158015613304573d6000803e3d6000fd5b505050506040513d602081101561331a57600080fd5b505114611a6d576040805162461bcd60e51b815260206004820152601b60248201527f4e6f7420656e6f756768207368617265732077697468647261776e0000000000604482015290519081900360640190fd5b8015806133f4575060408051636eb1769f60e11b81523060048201526001600160a01b03848116602483015291519185169163dd62ed3e91604480820192602092909190829003018186803b1580156133c657600080fd5b505afa1580156133da573d6000803e3d6000fd5b505050506040513d60208110156133f057600080fd5b5051155b61342f5760405162461bcd60e51b8152600401808060200182810382526036815260200180613bc06036913960400191505060405180910390fd5b604080516001600160a01b038416602482015260448082018490528251808303909101815260649091019091526020810180516001600160e01b031663095ea7b360e01b1790526127a0908490613826565b6000805460408051631d1f307960e31b81526001600160a01b038781166004830152868116602483015260448201869052915160609493849362010000909104169163e8f983c89160648083019286929190829003018186803b1580156134e757600080fd5b505afa1580156134fb573d6000803e3d6000fd5b505050506040513d6000823e601f3d908101601f19168201604052606081101561352457600080fd5b8101908080516040519392919084600160201b82111561354357600080fd5b90830190602082018581111561355857600080fd5b82518660208202830111600160201b8211171561357457600080fd5b82525081516020918201928201910280838360005b838110156135a1578181015183820152602001613589565b50505050919091016040908152602083015192015194975090955092935050831591506137c8905057600060029054906101000a90046001600160a01b03166001600160a01b0316636e74a6f7826040518263ffffffff1660e01b81526004018082815260200191505060206040518083038186803b15801561362357600080fd5b505afa158015613637573d6000803e3d6000fd5b505050506040513d602081101561364d57600080fd5b50516040516338ed173960e01b8152600481018681526001602483018190523060648401819052601e42016084850181905260a060448601908152895160a487015289516001600160a01b03909716966338ed1739968c968c9594939092909160c401906020878101910280838360005b838110156136d65781810151838201526020016136be565b505050509050019650505050505050600060405180830381600087803b1580156136ff57600080fd5b505af1158015613713573d6000803e3d6000fd5b505050506040513d6000823e601f3d908101601f19168201604052602081101561373c57600080fd5b8101908080516040519392919084600160201b82111561375b57600080fd5b90830190602082018581111561377057600080fd5b82518660208202830111600160201b8211171561378c57600080fd5b82525081516020918201928201910280838360005b838110156137b95781810151838201526020016137a1565b50505050905001604052505050505b505050505050565b604080516001600160a01b0380861660248301528416604482015260648082018490528251808303909101815260849091019091526020810180516001600160e01b03166323b872dd60e01b17905261225b9085905b606061387b826040518060400160405280602081526020017f5361666545524332303a206c6f772d6c6576656c2063616c6c206661696c6564815250856001600160a01b03166138d79092919063ffffffff16565b8051909150156127a05780806020019051602081101561389a57600080fd5b50516127a05760405162461bcd60e51b815260040180806020018281038252602a815260200180613b76602a913960400191505060405180910390fd5b60606138e684846000856138ee565b949350505050565b60608247101561392f5760405162461bcd60e51b8152600401808060200182810382526026815260200180613b2f6026913960400191505060405180910390fd5b61393885613a4a565b613989576040805162461bcd60e51b815260206004820152601d60248201527f416464726573733a2063616c6c20746f206e6f6e2d636f6e7472616374000000604482015290519081900360640190fd5b60006060866001600160a01b031685876040518082805190602001908083835b602083106139c85780518252601f1990920191602091820191016139a9565b6001836020036101000a03801982511681845116808217855250505050505090500191505060006040518083038185875af1925050503d8060008114613a2a576040519150601f19603f3d011682016040523d82523d6000602084013e613a2f565b606091505b5091509150613a3f828286613a50565b979650505050505050565b3b151590565b60608315613a5f575081610ebd565b825115613a6f5782518084602001fd5b8160405162461bcd60e51b81526004018080602001828103825283818151815260200191508051906020019080838360005b83811015613ab9578181015183820152602001613aa1565b50505050905090810190601f168015613ae65780820380516001836020036101000a031916815260200191505b509250505060405180910390fdfe416464726573733a20756e61626c6520746f2073656e642076616c75652c20726563697069656e74206d61792068617665207265766572746564416464726573733a20696e73756666696369656e742062616c616e636520666f722063616c6c536166654d6174683a206d756c7469706c69636174696f6e206f766572666c6f775361666545524332303a204552433230206f7065726174696f6e20646964206e6f74207375636365656463616c6c65722d69732d6e6f742d7468652d636f6e74726f6c6c6572000000005361666545524332303a20617070726f76652066726f6d206e6f6e2d7a65726f20746f206e6f6e2d7a65726f20616c6c6f77616e6365a26469706673582212202f1506ffa29000ab3c516d5b6f6256d7e23f0375ff65c5324937006d6410344264736f6c634300060c0033",
  "devdoc": {
    "kind": "dev",
    "methods": {
      "approveToken()": {
        "details": "Approve all required tokens"
      },
      "convertFrom18(uint256)": {
        "details": "Convert from 18 decimals to token defined decimals. Default no conversion."
      },
      "createKeeperList()": {
        "details": "Create keeper list NOTE: Any function with onlyKeeper modifier will not work until this function is called. NOTE: Due to gas constraint this function cannot be called in constructor."
      },
      "deposit(uint256)": {
        "details": "Deposit collateral token into lending pool.",
        "params": {
          "_amount": "Amount of collateral token"
        }
      },
      "isUpgradable()": {
        "details": "If there are no vTokens in strategy then it is upgradable"
      },
      "migrateIn()": {
        "details": "For moving between versions of similar strategies"
      },
      "migrateOut()": {
        "details": "For moving between versions of similar strategies"
      },
      "rebalance()": {
        "details": "Calculate interest fee on earning from VesperV3 and transfer fee to fee collector. Deposit available collateral from pool into VesperV3. Anyone can call it except when paused."
      },
      "resetApproval()": {
        "details": "Reset approval of all required tokens"
      },
      "sweepErc20(address)": {
        "details": "sweep given token to vesper pool",
        "params": {
          "_fromToken": "token address to sweep"
        }
      },
      "token()": {
        "details": "Returns address of token correspond to collateral token"
      },
      "totalLocked()": {
        "returns": {
          "_0": "Return value will be in collateralToken defined decimal."
        }
      },
      "updateSwapManager(address)": {
        "params": {
          "_swapManager": "swap manager address"
        }
      },
      "withdraw(uint256)": {
        "details": "Withdraw collateral token from lending pool.",
        "params": {
          "_amount": "Amount of collateral token"
        }
      },
      "withdrawAll()": {
        "details": "Withdraw all collateral. No rebalance earning. Controller only function, called when migrating strategy."
      }
    },
    "version": 1
  },
  "userdoc": {
    "kind": "user",
    "methods": {
      "beforeWithdraw()": {
        "notice": "Vesper pools are using this function so it should exist in all strategies."
      },
      "createKeeperList()": {
        "notice": "Create keeper list"
      },
      "depositAll()": {
        "notice": "Deposit all collateral token from pool to other lending pool. Anyone can call it except when paused."
      },
      "interestEarned()": {
        "notice": "Returns interest earned since last rebalance."
      },
      "isReservedToken(address)": {
        "notice": "This method is deprecated and will be removed from Strategies in next release"
      },
      "isUpgradable()": {
        "notice": "Returns true if strategy can be upgraded."
      },
      "totalLocked()": {
        "notice": "Total collateral locked in VesperV3."
      },
      "updateSwapManager(address)": {
        "notice": "Update swap manager address"
      }
    },
    "version": 1
  },
  "storageLayout": {
    "storage": [
      {
        "astId": 3515,
        "contract": "contracts/strategies/VesperV3StrategyDAI.sol:VesperV3StrategyDAI",
        "label": "paused",
        "offset": 0,
        "slot": "0",
        "type": "t_bool"
      },
      {
        "astId": 3517,
        "contract": "contracts/strategies/VesperV3StrategyDAI.sol:VesperV3StrategyDAI",
        "label": "stopEverything",
        "offset": 1,
        "slot": "0",
        "type": "t_bool"
      },
      {
        "astId": 17845,
        "contract": "contracts/strategies/VesperV3StrategyDAI.sol:VesperV3StrategyDAI",
        "label": "swapManager",
        "offset": 2,
        "slot": "0",
        "type": "t_contract(ISwapManager)6775"
      },
      {
        "astId": 17856,
        "contract": "contracts/strategies/VesperV3StrategyDAI.sol:VesperV3StrategyDAI",
        "label": "keepers",
        "offset": 0,
        "slot": "1",
        "type": "t_contract(IAddressListExt)22659"
      }
    ],
    "types": {
      "t_bool": {
        "encoding": "inplace",
        "label": "bool",
        "numberOfBytes": "1"
      },
      "t_contract(IAddressListExt)22659": {
        "encoding": "inplace",
        "label": "contract IAddressListExt",
        "numberOfBytes": "20"
      },
      "t_contract(ISwapManager)6775": {
        "encoding": "inplace",
        "label": "contract ISwapManager",
        "numberOfBytes": "20"
      }
    }
  }
}