{
  "address": "0xA5379d69D32555d2a75E0010e09091D990F6A975",
  "abi": [
    {
      "inputs": [
        {
          "internalType": "address",
          "name": "_controller",
          "type": "address"
        },
        {
          "internalType": "address",
          "name": "_vvsp",
          "type": "address"
        }
      ],
      "stateMutability": "nonpayable",
      "type": "constructor"
    },
    {
      "anonymous": false,
      "inputs": [
        {
          "indexed": false,
          "internalType": "address",
          "name": "account",
          "type": "address"
        }
      ],
      "name": "Open",
      "type": "event"
    },
    {
      "anonymous": false,
      "inputs": [
        {
          "indexed": false,
          "internalType": "address",
          "name": "account",
          "type": "address"
        }
      ],
      "name": "Paused",
      "type": "event"
    },
    {
      "anonymous": false,
      "inputs": [
        {
          "indexed": false,
          "internalType": "address",
          "name": "account",
          "type": "address"
        }
      ],
      "name": "Shutdown",
      "type": "event"
    },
    {
      "anonymous": false,
      "inputs": [
        {
          "indexed": false,
          "internalType": "address",
          "name": "account",
          "type": "address"
        }
      ],
      "name": "Unpaused",
      "type": "event"
    },
    {
      "anonymous": false,
      "inputs": [
        {
          "indexed": false,
          "internalType": "uint256",
          "name": "oldPeriod",
          "type": "uint256"
        },
        {
          "indexed": false,
          "internalType": "uint256",
          "name": "newPeriod",
          "type": "uint256"
        },
        {
          "indexed": false,
          "internalType": "uint256",
          "name": "oldRouterIdx",
          "type": "uint256"
        },
        {
          "indexed": false,
          "internalType": "uint256",
          "name": "newRouterIdx",
          "type": "uint256"
        }
      ],
      "name": "UpdatedOracleConfig",
      "type": "event"
    },
    {
      "anonymous": false,
      "inputs": [
        {
          "indexed": true,
          "internalType": "address",
          "name": "previousSwapManager",
          "type": "address"
        },
        {
          "indexed": true,
          "internalType": "address",
          "name": "newSwapManager",
          "type": "address"
        }
      ],
      "name": "UpdatedSwapManager",
      "type": "event"
    },
    {
      "anonymous": false,
      "inputs": [
        {
          "indexed": false,
          "internalType": "uint256",
          "name": "oldSwapSlippage",
          "type": "uint256"
        },
        {
          "indexed": false,
          "internalType": "uint256",
          "name": "newSwapSlippage",
          "type": "uint256"
        }
      ],
      "name": "UpdatedSwapSlippage",
      "type": "event"
    },
    {
      "inputs": [],
      "name": "NAME",
      "outputs": [
        {
          "internalType": "string",
          "name": "",
          "type": "string"
        }
      ],
      "stateMutability": "view",
      "type": "function"
    },
    {
      "inputs": [],
      "name": "VERSION",
      "outputs": [
        {
          "internalType": "string",
          "name": "",
          "type": "string"
        }
      ],
      "stateMutability": "view",
      "type": "function"
    },
    {
      "inputs": [],
      "name": "controller",
      "outputs": [
        {
          "internalType": "contract IController",
          "name": "",
          "type": "address"
        }
      ],
      "stateMutability": "view",
      "type": "function"
    },
    {
      "inputs": [],
      "name": "isUpgradable",
      "outputs": [
        {
          "internalType": "bool",
          "name": "",
          "type": "bool"
        }
      ],
      "stateMutability": "view",
      "type": "function"
    },
    {
      "inputs": [],
      "name": "keepers",
      "outputs": [
        {
          "internalType": "contract IAddressListExt",
          "name": "",
          "type": "address"
        }
      ],
      "stateMutability": "view",
      "type": "function"
    },
    {
      "inputs": [],
      "name": "lastRebalanceBlock",
      "outputs": [
        {
          "internalType": "uint256",
          "name": "",
          "type": "uint256"
        }
      ],
      "stateMutability": "view",
      "type": "function"
    },
    {
      "inputs": [
        {
          "internalType": "uint256",
          "name": "",
          "type": "uint256"
        }
      ],
      "name": "liquidationLimit",
      "outputs": [
        {
          "internalType": "uint256",
          "name": "",
          "type": "uint256"
        }
      ],
      "stateMutability": "view",
      "type": "function"
    },
    {
      "inputs": [],
      "name": "nextPoolIdx",
      "outputs": [
        {
          "internalType": "uint256",
          "name": "",
          "type": "uint256"
        }
      ],
      "stateMutability": "view",
      "type": "function"
    },
    {
      "inputs": [],
      "name": "oraclePeriod",
      "outputs": [
        {
          "internalType": "uint256",
          "name": "",
          "type": "uint256"
        }
      ],
      "stateMutability": "view",
      "type": "function"
    },
    {
      "inputs": [],
      "name": "oracleRouterIdx",
      "outputs": [
        {
          "internalType": "uint256",
          "name": "",
          "type": "uint256"
        }
      ],
      "stateMutability": "view",
      "type": "function"
    },
    {
      "inputs": [],
      "name": "pause",
      "outputs": [],
      "stateMutability": "nonpayable",
      "type": "function"
    },
    {
      "inputs": [],
      "name": "paused",
      "outputs": [
        {
          "internalType": "bool",
          "name": "",
          "type": "bool"
        }
      ],
      "stateMutability": "view",
      "type": "function"
    },
    {
      "inputs": [],
      "name": "pool",
      "outputs": [
        {
          "internalType": "address",
          "name": "",
          "type": "address"
        }
      ],
      "stateMutability": "view",
      "type": "function"
    },
    {
      "inputs": [
        {
          "internalType": "uint256",
          "name": "",
          "type": "uint256"
        }
      ],
      "name": "pools",
      "outputs": [
        {
          "internalType": "address",
          "name": "",
          "type": "address"
        }
      ],
      "stateMutability": "view",
      "type": "function"
    },
    {
      "inputs": [],
      "name": "rebalance",
      "outputs": [],
      "stateMutability": "nonpayable",
      "type": "function"
    },
    {
      "inputs": [],
      "name": "stopEverything",
      "outputs": [
        {
          "internalType": "bool",
          "name": "",
          "type": "bool"
        }
      ],
      "stateMutability": "view",
      "type": "function"
    },
    {
      "inputs": [],
      "name": "swapManager",
      "outputs": [
        {
          "internalType": "contract ISwapManager",
          "name": "",
          "type": "address"
        }
      ],
      "stateMutability": "view",
      "type": "function"
    },
    {
      "inputs": [],
      "name": "swapSlippage",
      "outputs": [
        {
          "internalType": "uint256",
          "name": "",
          "type": "uint256"
        }
      ],
      "stateMutability": "view",
      "type": "function"
    },
    {
      "inputs": [
        {
          "internalType": "address",
          "name": "_fromToken",
          "type": "address"
        }
      ],
      "name": "sweepErc20",
      "outputs": [],
      "stateMutability": "nonpayable",
      "type": "function"
    },
    {
      "inputs": [],
      "name": "unpause",
      "outputs": [],
      "stateMutability": "nonpayable",
      "type": "function"
    },
    {
      "inputs": [
        {
          "internalType": "address[]",
          "name": "_pools",
          "type": "address[]"
        },
        {
          "internalType": "uint256[]",
          "name": "_limit",
          "type": "uint256[]"
        }
      ],
      "name": "updateLiquidationQueue",
      "outputs": [],
      "stateMutability": "nonpayable",
      "type": "function"
    },
    {
      "inputs": [
        {
          "internalType": "uint256",
          "name": "_newPeriod",
          "type": "uint256"
        },
        {
          "internalType": "uint256",
          "name": "_newRouterIdx",
          "type": "uint256"
        }
      ],
      "name": "updateOracleConfig",
      "outputs": [],
      "stateMutability": "nonpayable",
      "type": "function"
    },
    {
      "inputs": [
        {
          "internalType": "address",
          "name": "_swapManager",
          "type": "address"
        }
      ],
      "name": "updateSwapManager",
      "outputs": [],
      "stateMutability": "nonpayable",
      "type": "function"
    },
    {
      "inputs": [
        {
          "internalType": "uint256",
          "name": "_newSwapSlippage",
          "type": "uint256"
        }
      ],
      "name": "updateSwapSlippage",
      "outputs": [],
      "stateMutability": "nonpayable",
      "type": "function"
    },
    {
      "inputs": [],
      "name": "vvsp",
      "outputs": [
        {
          "internalType": "contract IVesperPool",
          "name": "",
          "type": "address"
        }
      ],
      "stateMutability": "view",
      "type": "function"
    }
  ],
  "transactionHash": "0xe19c660a7005bd457bccf88edd14029b74f7eed7c7c135d8552d7eed0b5357e0",
  "args": [
    "0xa4F1671d3Aee73C05b552d57f2d16d3cfcBd0217",
    "0xbA4cFE5741b357FA371b506e5db0774aBFeCf8Fc"
  ],
  "solcInputHash": "f0b4843cb2f9b6a19b9bcfc697877298",
  "bytecode": "0x60e0604052610e106001556000600255612710600355600480546001600160a01b03191673e382d9f2394a359b01006faa8a1864b8a60d27101790553480156200004857600080fd5b50604051620028ba380380620028ba833981810160405260408110156200006e57600080fd5b5080516020918201516001600160601b0319606083811b821660805282901b1660a05260408051630fab4d2560e01b815290519293919273d57b41649f822c51a73c44ba0b3da4a880af0029926000928492630fab4d259260048084019391929182900301818787803b158015620000e557600080fd5b505af1158015620000fa573d6000803e3d6000fd5b505050506040513d60208110156200011157600080fd5b505160408051632f2ff15d60e01b81527f679f35d3aa86a98333c7fc7439a0bc12a13be742ae62a4c1cc3820782a2e11a660048201526001600160a01b038781166024830152915192935090831691632f2ff15d9160448082019260009290919082900301818387803b1580156200018857600080fd5b505af11580156200019d573d6000803e3d6000fd5b50505050606081811b6001600160601b03191660c05260805160a05190821c9550901c92506001600160a01b0316905061266f6200024b60003980610b205280610efe52508061065252806108ac5280610c375280610d505280610de45280610f225280611208528061137952806114845280611b6852508061044752806104cd528061069a528061073352806109b45280610c085280610e7b5280610f6e5280611233525061266f6000f3fe608060405234801561001057600080fd5b50600436106101735760003560e01c80637517f9b8116100de578063a3f4df7e11610097578063cd2d7ebe11610071578063cd2d7ebe14610407578063d9fe3eae1461040f578063f77c479114610435578063ffa1ad741461043d57610173565b8063a3f4df7e1461034a578063a923b2a6146103c7578063ac4afa38146103ea57610173565b80637517f9b81461031a5780637d7c2a1c14610322578063810d36d91461032a5780638456cb5914610332578063951dc22c1461033a578063973a59c11461034257610173565b80634938649a116101305780634938649a146102a35780634c36fad7146102bf5780635479d940146102e55780635c975abb146102ed57806367f5e4b8146102f5578063709d039d1461031257610173565b8063044a1ef71461017857806316f0115b146102385780631a7ec4a11461025c5780631aedeabe1461028b5780633f4ba83a1461029357806342189c8f1461029b575b600080fd5b6102366004803603604081101561018e57600080fd5b810190602081018135600160201b8111156101a857600080fd5b8201836020820111156101ba57600080fd5b803590602001918460208302840111600160201b831117156101db57600080fd5b919390929091602081019035600160201b8111156101f857600080fd5b82018360208201111561020a57600080fd5b803590602001918460208302840111600160201b8311171561022b57600080fd5b509092509050610445565b005b610240610650565b604080516001600160a01b039092168252519081900360200190f35b6102796004803603602081101561027257600080fd5b5035610674565b60408051918252519081900360200190f35b610279610692565b610236610698565b61027961071d565b6102ab610723565b604080519115158252519081900360200190f35b610236600480360360208110156102d557600080fd5b50356001600160a01b0316610731565b6102ab6108a8565b6102ab6109a9565b6102366004803603602081101561030b57600080fd5b50356109b2565b610240610abe565b610279610acd565b610236610ad3565b610279610e73565b610236610e79565b610240610efc565b610240610f20565b610352610f44565b6040805160208082528351818301528351919283929083019185019080838360005b8381101561038c578181015183820152602001610374565b50505050905090810190601f1680156103b95780820380516001836020036101000a031916815260200191505b509250505060405180910390f35b610236600480360360408110156103dd57600080fd5b5080359060200135610f6c565b6102406004803603602081101561040057600080fd5b503561114f565b610279611176565b6102366004803603602081101561042557600080fd5b50356001600160a01b031661117c565b610240611231565b610352611255565b7f00000000000000000000000000000000000000000000000000000000000000006001600160a01b0316610477611276565b6001600160a01b0316146104c0576040805162461bcd60e51b815260206004820152601c60248201526000805160206125ba833981519152604482015290519081900360640190fd5b60005b8381101561062a577f00000000000000000000000000000000000000000000000000000000000000006001600160a01b0316635b16ebb786868481811061050657fe5b905060200201356001600160a01b03166040518263ffffffff1660e01b815260040180826001600160a01b0316815260200191505060206040518083038186803b15801561055357600080fd5b505afa158015610567573d6000803e3d6000fd5b505050506040513d602081101561057d57600080fd5b50516105c3576040805162461bcd60e51b815260206004820152601060248201526f139bdd0818481d985b1a59081c1bdbdb60821b604482015290519081900360640190fd5b8282828181106105cf57fe5b9050602002013560001415610622576040805162461bcd60e51b81526020600482015260146024820152734c696d69742063616e6e6f74206265207a65726f60601b604482015290519081900360640190fd5b6001016104c3565b50610637600785856124b5565b5061064460088383612518565b50506000600655505050565b7f000000000000000000000000000000000000000000000000000000000000000090565b6008818154811061068157fe5b600091825260209091200154905081565b60035481565b7f00000000000000000000000000000000000000000000000000000000000000006001600160a01b03166106ca611276565b6001600160a01b031614610713576040805162461bcd60e51b815260206004820152601c60248201526000805160206125ba833981519152604482015290519081900360640190fd5b61071b61127a565b565b60015481565b600054610100900460ff1681565b7f00000000000000000000000000000000000000000000000000000000000000006001600160a01b0316610763611276565b6001600160a01b0316146107ac576040805162461bcd60e51b815260206004820152601c60248201526000805160206125ba833981519152604482015290519081900360640190fd5b6001600160a01b0381166107fc576040805162461bcd60e51b8152602060048201526012602482015271736d2d616464726573732d69732d7a65726f60701b604482015290519081900360640190fd5b6004546001600160a01b038281169116141561084c576040805162461bcd60e51b815260206004820152600a602482015269736d2d69732d73616d6560b01b604482015290519081900360640190fd5b6004546040516001600160a01b038084169216907f2d19927e7cac08ceb98b38898a4fdff6da6a27295b9a2d62fe250408ebe044e190600090a3600480546001600160a01b0319166001600160a01b0392909216919091179055565b60007f00000000000000000000000000000000000000000000000000000000000000006001600160a01b031663fc0c546a6040518163ffffffff1660e01b815260040160206040518083038186803b15801561090357600080fd5b505afa158015610917573d6000803e3d6000fd5b505050506040513d602081101561092d57600080fd5b5051604080516370a0823160e01b815230600482015290516001600160a01b03909216916370a0823191602480820192602092909190829003018186803b15801561097757600080fd5b505afa15801561098b573d6000803e3d6000fd5b505050506040513d60208110156109a157600080fd5b505115905090565b60005460ff1681565b7f00000000000000000000000000000000000000000000000000000000000000006001600160a01b03166109e4611276565b6001600160a01b031614610a2d576040805162461bcd60e51b815260206004820152601c60248201526000805160206125ba833981519152604482015290519081900360640190fd5b612710811115610a7d576040805162461bcd60e51b8152602060048201526016602482015275696e76616c69642d736c6970706167652d76616c756560501b604482015290519081900360640190fd5b600354604080519182526020820183905280517ef1c5db862c7598b3b6765552ca951f498611e06412c2d57f8d0b58f82e7f829281900390910190a1600355565b6004546001600160a01b031681565b60055481565b60005460ff1615610b1e576040805162461bcd60e51b815260206004820152601060248201526f14185d5cd8589b194e881c185d5cd95960821b604482015290519081900360640190fd5b7f00000000000000000000000000000000000000000000000000000000000000006001600160a01b0316635dbe47e8610b55611276565b6040518263ffffffff1660e01b815260040180826001600160a01b0316815260200191505060206040518083038186803b158015610b9257600080fd5b505afa158015610ba6573d6000803e3d6000fd5b505050506040513d6020811015610bbc57600080fd5b5051610c06576040805162461bcd60e51b815260206004820152601460248201527331b0b63632b916b4b996b737ba16b5b2b2b832b960611b604482015290519081900360640190fd5b7f00000000000000000000000000000000000000000000000000000000000000006001600160a01b0316636a2b11767f00000000000000000000000000000000000000000000000000000000000000006040518263ffffffff1660e01b815260040180826001600160a01b0316815260200191505060206040518083038186803b158015610c9357600080fd5b505afa158015610ca7573d6000803e3d6000fd5b505050506040513d6020811015610cbd57600080fd5b505160055443031015610d0b576040805162461bcd60e51b815260206004820152601160248201527043616e206e6f7420726562616c616e636560781b604482015290519081900360640190fd5b436005556007546006541415610d215760006006555b6000600760065481548110610d3257fe5b6000918252602080832090910154604080516370a0823160e01b81527f00000000000000000000000000000000000000000000000000000000000000006001600160a01b039081166004830152915191909216945084926370a082319260248082019391829003018186803b158015610daa57600080fd5b505afa158015610dbe573d6000803e3d6000fd5b505050506040513d6020811015610dd457600080fd5b505190508015801590610e1957507f00000000000000000000000000000000000000000000000000000000000000006001600160a01b0316826001600160a01b031614155b15610e6657600860065481548110610e2d57fe5b9060005260206000200154811115610e5c57600860065481548110610e4e57fe5b906000526020600020015490505b610e66828261136a565b5050600680546001019055565b60065481565b7f00000000000000000000000000000000000000000000000000000000000000006001600160a01b0316610eab611276565b6001600160a01b031614610ef4576040805162461bcd60e51b815260206004820152601c60248201526000805160206125ba833981519152604482015290519081900360640190fd5b61071b611c02565b7f000000000000000000000000000000000000000000000000000000000000000081565b7f000000000000000000000000000000000000000000000000000000000000000081565b6040518060400160405280600c81526020016b053747261746567792d5653560a41b81525081565b7f00000000000000000000000000000000000000000000000000000000000000006001600160a01b0316610f9e611276565b6001600160a01b031614610fe7576040805162461bcd60e51b815260206004820152601c60248201526000805160206125ba833981519152604482015290519081900360640190fd5b600480546040805163c2fba66760e01b815290516001600160a01b039092169263c2fba667928282019260209290829003018186803b15801561102957600080fd5b505afa15801561103d573d6000803e3d6000fd5b505050506040513d602081101561105357600080fd5b5051811061109f576040805162461bcd60e51b81526020600482015260146024820152730d2dcecc2d8d2c85ae4deeae8cae45ad2dcc8caf60631b604482015290519081900360640190fd5b816110aa5760015491505b603b82116110f7576040805162461bcd60e51b81526020600482015260156024820152741a5b9d985b1a590b5bdc9858db194b5c195c9a5bd9605a1b604482015290519081900360640190fd5b60015460025460408051928352602083018590528281019190915260608201839052517f83bc5ab8030537fcf1d29c2334f6d22c26c82dcbe5ff03923d2cff5c692c0a7f9181900360800190a1600191909155600255565b6007818154811061115c57fe5b6000918252602090912001546001600160a01b0316905081565b60025481565b6000816001600160a01b03166370a08231306040518263ffffffff1660e01b815260040180826001600160a01b0316815260200191505060206040518083038186803b1580156111cb57600080fd5b505afa1580156111df573d6000803e3d6000fd5b505050506040513d60208110156111f557600080fd5b5051905061122d6001600160a01b0383167f000000000000000000000000000000000000000000000000000000000000000083611c83565b5050565b7f000000000000000000000000000000000000000000000000000000000000000081565b60405180604001604052806005815260200164322e302e3360d81b81525081565b3390565b60005460ff166112c8576040805162461bcd60e51b815260206004820152601460248201527314185d5cd8589b194e881b9bdd081c185d5cd95960621b604482015290519081900360640190fd5b600054610100900460ff161561131a576040805162461bcd60e51b81526020600482015260126024820152712830bab9b0b136329d1039b43aba3237bbb760711b604482015290519081900360640190fd5b6000805460ff191690557f5db9ee0a495bf2e6ff9c91a7834c1ba4fdd244a5e8aa4e537bd38aeae4b073aa61134d611276565b604080516001600160a01b039092168252519081900360200190a1565b61139f6001600160a01b0383167f00000000000000000000000000000000000000000000000000000000000000003084611cda565b816001600160a01b0316632e1a7d4d826040518263ffffffff1660e01b815260040180828152602001915050600060405180830381600087803b1580156113e557600080fd5b505af11580156113f9573d6000803e3d6000fd5b505050506000826001600160a01b031663fc0c546a6040518163ffffffff1660e01b815260040160206040518083038186803b15801561143857600080fd5b505afa15801561144c573d6000803e3d6000fd5b505050506040513d602081101561146257600080fd5b505160408051637e062a3560e11b815290519192506000916001600160a01b037f0000000000000000000000000000000000000000000000000000000000000000169163fc0c546a916004808301926020929190829003018186803b1580156114ca57600080fd5b505afa1580156114de573d6000803e3d6000fd5b505050506040513d60208110156114f457600080fd5b505160048054604080516370a0823160e01b815230938101939093525192935060609260009283926001600160a01b039081169263e8f983c89289928992908416916370a08231916024808301926020929190829003018186803b15801561155b57600080fd5b505afa15801561156f573d6000803e3d6000fd5b505050506040513d602081101561158557600080fd5b5051604080516001600160e01b031960e087901b1681526001600160a01b039485166004820152929093166024830152604482015290516064808301926000929190829003018186803b1580156115db57600080fd5b505afa1580156115ef573d6000803e3d6000fd5b505050506040513d6000823e601f3d908101601f19168201604052606081101561161857600080fd5b8101908080516040519392919084600160201b82111561163757600080fd5b90830190602082018581111561164c57600080fd5b82518660208202830111600160201b8211171561166857600080fd5b82525081516020918201928201910280838360005b8381101561169557818101518382015260200161167d565b5050505091909101604090815260208301519201519497509095509293505083159150611bf99050576004805460408051636e74a6f760e01b81529283018490525161174a926001600160a01b0390921691636e74a6f7916024808301926020929190829003018186803b15801561170c57600080fd5b505afa158015611720573d6000803e3d6000fd5b505050506040513d602081101561173657600080fd5b50516001600160a01b038716906000611d3a565b6004805460408051636e74a6f760e01b815292830184905251611847926001600160a01b0390921691636e74a6f7916024808301926020929190829003018186803b15801561179857600080fd5b505afa1580156117ac573d6000803e3d6000fd5b505050506040513d60208110156117c257600080fd5b5051604080516370a0823160e01b815230600482015290516001600160a01b038916916370a08231916024808301926020929190829003018186803b15801561180a57600080fd5b505afa15801561181e573d6000803e3d6000fd5b505050506040513d602081101561183457600080fd5b50516001600160a01b0388169190611d3a565b6000600354612710141561185c5760016118f2565b6118f26118ea6118e4731b40183efb4dd766f11bda7a7c3ad8982e9984218b6001600160a01b031663fc0c546a6040518163ffffffff1660e01b815260040160206040518083038186803b1580156118b357600080fd5b505afa1580156118c7573d6000803e3d6000fd5b505050506040513d60208110156118dd57600080fd5b5051611e4d565b85611fe2565b6003546120d3565b6004805460408051636e74a6f760e01b8152928301869052519293506001600160a01b031691636e74a6f791602480820192602092909190829003018186803b15801561193e57600080fd5b505afa158015611952573d6000803e3d6000fd5b505050506040513d602081101561196857600080fd5b5051604080516370a0823160e01b815230600482015290516001600160a01b03928316926338ed173992908a16916370a0823191602480820192602092909190829003018186803b1580156119bc57600080fd5b505afa1580156119d0573d6000803e3d6000fd5b505050506040513d60208110156119e657600080fd5b50516040516001600160e01b031960e084901b16815260048101828152602482018690523060648301819052601e42016084840181905260a0604485019081528b5160a48601528b5189958d95929160c4909101906020878101910280838360005b83811015611a60578181015183820152602001611a48565b505050509050019650505050505050600060405180830381600087803b158015611a8957600080fd5b505af1158015611a9d573d6000803e3d6000fd5b505050506040513d6000823e601f3d908101601f191682016040526020811015611ac657600080fd5b8101908080516040519392919084600160201b821115611ae557600080fd5b908301906020820185811115611afa57600080fd5b82518660208202830111600160201b82111715611b1657600080fd5b82525081516020918201928201910280838360005b83811015611b43578181015183820152602001611b2b565b505050509190910160408181526370a0823160e01b825230600483015251611bf796507f000000000000000000000000000000000000000000000000000000000000000095506001600160a01b038c1694506370a08231935060248083019350602092829003018186803b158015611bba57600080fd5b505afa158015611bce573d6000803e3d6000fd5b505050506040513d6020811015611be457600080fd5b50516001600160a01b0388169190611c83565b505b50505050505050565b60005460ff1615611c4d576040805162461bcd60e51b815260206004820152601060248201526f14185d5cd8589b194e881c185d5cd95960821b604482015290519081900360640190fd5b6000805460ff191660011790557f62e78cea01bee320cd4e420270b5ea74000d11b0c9f74754ebdbfc544b05a25861134d611276565b604080516001600160a01b038416602482015260448082018490528251808303909101815260649091019091526020810180516001600160e01b031663a9059cbb60e01b179052611cd59084906120e1565b505050565b604080516001600160a01b0380861660248301528416604482015260648082018490528251808303909101815260849091019091526020810180516001600160e01b03166323b872dd60e01b179052611d349085906120e1565b50505050565b801580611dc0575060408051636eb1769f60e11b81523060048201526001600160a01b03848116602483015291519185169163dd62ed3e91604480820192602092909190829003018186803b158015611d9257600080fd5b505afa158015611da6573d6000803e3d6000fd5b505050506040513d6020811015611dbc57600080fd5b5051155b611dfb5760405162461bcd60e51b81526004018080602001828103825260368152602001806126046036913960400191505060405180910390fd5b604080516001600160a01b038416602482015260448082018490528251808303909101815260649091019091526020810180516001600160e01b031663095ea7b360e01b179052611cd59084906120e1565b60606001600160a01b03831673c02aaa39b223fe8d0a0e5c4f27ead9083c756cc21480611e9657506001600160a01b03821673c02aaa39b223fe8d0a0e5c4f27ead9083c756cc2145b15611f1c5760408051600280825260608201835290916020830190803683370190505090508281600081518110611ec957fe5b60200260200101906001600160a01b031690816001600160a01b0316815250508181600181518110611ef757fe5b60200260200101906001600160a01b031690816001600160a01b031681525050611fdc565b6040805160038082526080820190925290602082016060803683370190505090508281600081518110611f4b57fe5b60200260200101906001600160a01b031690816001600160a01b03168152505073c02aaa39b223fe8d0a0e5c4f27ead9083c756cc281600181518110611f8d57fe5b60200260200101906001600160a01b031690816001600160a01b0316815250508181600281518110611fbb57fe5b60200260200101906001600160a01b031690816001600160a01b0316815250505b92915050565b60006001835111612030576040805162461bcd60e51b81526020600482015260136024820152720d2dcecc2d8d2c85adee4c2c6d8ca5ae0c2e8d606b1b604482015290519081900360640190fd5b50806000805b60018551038110156120cb5761207685828151811061205157fe5b602002602001015186836001018151811061206857fe5b602002602001015185612192565b9093509150816120c3576040805162461bcd60e51b8152602060048201526013602482015272696e76616c69642d6f7261636c652d7261746560681b604482015290519081900360640190fd5b600101612036565b505092915050565b612710908103919091020490565b6060612136826040518060400160405280602081526020017f5361666545524332303a206c6f772d6c6576656c2063616c6c206661696c6564815250856001600160a01b03166122969092919063ffffffff16565b805190915015611cd55780806020019051602081101561215557600080fd5b5051611cd55760405162461bcd60e51b815260040180806020018281038252602a8152602001806125da602a913960400191505060405180910390fd5b600080600080600460009054906101000a90046001600160a01b03166001600160a01b031663b67bb24d8888886001546002546040518663ffffffff1660e01b815260040180866001600160a01b03168152602001856001600160a01b0316815260200184815260200183815260200182815260200195505050505050606060405180830381600087803b15801561222957600080fd5b505af115801561223d573d6000803e3d6000fd5b505050506040513d606081101561225357600080fd5b508051602090910151600154919350915042038111801561227357508115155b15612284575091506001905061228e565b6000809350935050505b935093915050565b60606122a584846000856122af565b90505b9392505050565b6060824710156122f05760405162461bcd60e51b81526004018080602001828103825260268152602001806125946026913960400191505060405180910390fd5b6122f98561240b565b61234a576040805162461bcd60e51b815260206004820152601d60248201527f416464726573733a2063616c6c20746f206e6f6e2d636f6e7472616374000000604482015290519081900360640190fd5b60006060866001600160a01b031685876040518082805190602001908083835b602083106123895780518252601f19909201916020918201910161236a565b6001836020036101000a03801982511681845116808217855250505050505090500191505060006040518083038185875af1925050503d80600081146123eb576040519150601f19603f3d011682016040523d82523d6000602084013e6123f0565b606091505b5091509150612400828286612411565b979650505050505050565b3b151590565b606083156124205750816122a8565b8251156124305782518084602001fd5b8160405162461bcd60e51b81526004018080602001828103825283818151815260200191508051906020019080838360005b8381101561247a578181015183820152602001612462565b50505050905090810190601f1680156124a75780820380516001836020036101000a031916815260200191505b509250505060405180910390fd5b828054828255906000526020600020908101928215612508579160200282015b828111156125085781546001600160a01b0319166001600160a01b038435161782556020909201916001909101906124d5565b5061251492915061255f565b5090565b828054828255906000526020600020908101928215612553579160200282015b82811115612553578235825591602001919060010190612538565b5061251492915061257e565b5b808211156125145780546001600160a01b0319168155600101612560565b5b80821115612514576000815560010161257f56fe416464726573733a20696e73756666696369656e742062616c616e636520666f722063616c6c43616c6c6572206973206e6f742074686520636f6e74726f6c6c6572000000005361666545524332303a204552433230206f7065726174696f6e20646964206e6f7420737563636565645361666545524332303a20617070726f76652066726f6d206e6f6e2d7a65726f20746f206e6f6e2d7a65726f20616c6c6f77616e6365a26469706673582212206b5d2ecd111f77e3f7a42daa3c24dcb69b1ed5daec092e36aa0b94e3167cbb4b64736f6c634300060c0033",
  "devdoc": {
    "kind": "dev",
    "methods": {
      "sweepErc20(address)": {
        "details": "sweep given token to vsp pool"
      },
      "updateSwapManager(address)": {
        "params": {
          "_swapManager": "swap manager address"
        }
      }
    },
    "version": 1
  },
  "userdoc": {
    "kind": "user",
    "methods": {
      "rebalance()": {
        "notice": "withdraw Vtoken from vvsp => Deposit vpool => withdraw collateral => swap in uni for VSP => transfer vsp to vvsp pool VETH => ETH => VSP"
      },
      "updateSwapManager(address)": {
        "notice": "Update swap manager address"
      }
    },
    "version": 1
  },
  "storageLayout": {
    "storage": [
      {
        "astId": 3515,
        "contract": "contracts/strategies/VSPStrategy.sol:VSPStrategy",
        "label": "paused",
        "offset": 0,
        "slot": "0",
        "type": "t_bool"
      },
      {
        "astId": 3517,
        "contract": "contracts/strategies/VSPStrategy.sol:VSPStrategy",
        "label": "stopEverything",
        "offset": 1,
        "slot": "0",
        "type": "t_bool"
      },
      {
        "astId": 17465,
        "contract": "contracts/strategies/VSPStrategy.sol:VSPStrategy",
        "label": "oraclePeriod",
        "offset": 0,
        "slot": "1",
        "type": "t_uint256"
      },
      {
        "astId": 17468,
        "contract": "contracts/strategies/VSPStrategy.sol:VSPStrategy",
        "label": "oracleRouterIdx",
        "offset": 0,
        "slot": "2",
        "type": "t_uint256"
      },
      {
        "astId": 17471,
        "contract": "contracts/strategies/VSPStrategy.sol:VSPStrategy",
        "label": "swapSlippage",
        "offset": 0,
        "slot": "3",
        "type": "t_uint256"
      },
      {
        "astId": 17492,
        "contract": "contracts/strategies/VSPStrategy.sol:VSPStrategy",
        "label": "swapManager",
        "offset": 0,
        "slot": "4",
        "type": "t_contract(ISwapManager)6758"
      },
      {
        "astId": 20729,
        "contract": "contracts/strategies/VSPStrategy.sol:VSPStrategy",
        "label": "lastRebalanceBlock",
        "offset": 0,
        "slot": "5",
        "type": "t_uint256"
      },
      {
        "astId": 20735,
        "contract": "contracts/strategies/VSPStrategy.sol:VSPStrategy",
        "label": "nextPoolIdx",
        "offset": 0,
        "slot": "6",
        "type": "t_uint256"
      },
      {
        "astId": 20738,
        "contract": "contracts/strategies/VSPStrategy.sol:VSPStrategy",
        "label": "pools",
        "offset": 0,
        "slot": "7",
        "type": "t_array(t_address)dyn_storage"
      },
      {
        "astId": 20741,
        "contract": "contracts/strategies/VSPStrategy.sol:VSPStrategy",
        "label": "liquidationLimit",
        "offset": 0,
        "slot": "8",
        "type": "t_array(t_uint256)dyn_storage"
      }
    ],
    "types": {
      "t_address": {
        "encoding": "inplace",
        "label": "address",
        "numberOfBytes": "20"
      },
      "t_array(t_address)dyn_storage": {
        "base": "t_address",
        "encoding": "dynamic_array",
        "label": "address[]",
        "numberOfBytes": "32"
      },
      "t_array(t_uint256)dyn_storage": {
        "base": "t_uint256",
        "encoding": "dynamic_array",
        "label": "uint256[]",
        "numberOfBytes": "32"
      },
      "t_bool": {
        "encoding": "inplace",
        "label": "bool",
        "numberOfBytes": "1"
      },
      "t_contract(ISwapManager)6758": {
        "encoding": "inplace",
        "label": "contract ISwapManager",
        "numberOfBytes": "20"
      },
      "t_uint256": {
        "encoding": "inplace",
        "label": "uint256",
        "numberOfBytes": "32"
      }
    }
  }
}